:020000040800F2
:1000000028090020DD050008B1030008B30300083B
:10001000B7030008BB030008BF030008000000008E
:10002000000000000000000000000000C303000802
:10003000C503000800000000C7030008C90300084A
:10004000F7050008F7050008F7050008F7050008A0
:10005000F7050008F7050008F7050008F705000890
:10006000F7050008F7050008F7050008F705000880
:10007000F7050008F7050008F7050008F705000870
:10008000F7050008F7050008F7050008F705000860
:10009000F7050008F7050008F7050008394A0008C9
:1000A000F7050008F7050008F7050008F705000840
:1000B000F7050008F7050008F7050008F705000830
:1000C000F7050008F7050008F7050008F705000820
:1000D000F7050008F7050008F7050008C94B0008F8
:1000E000614A0008F7050008F7050008F705000851
:1000F000F7050008F7050008F7050008F7050008F0
:10010000F7050008F7050008F7050008F7050008DF
:10011000F7050008F7050008CD4800083549000834
:10012000F7050008F7050008F7050008F7050008BF
:10013000F7050008F7050008F7050008F7050008AF
:10014000F7050008F7050008F7050008F70500089F
:10015000F7050008F7050008F7050008F70500088F
:10016000F7050008F7050008F7050008F70500087F
:10017000F7050008F7050008F7050008F70500086F
:10018000F7050008F7050008DFF80CD004F0E8FFD9
:10019000004800479D010008280900201CB54FF4C5
:1001A000A06000F02DFAA82002F0D2FC03F0FCFBC6
:1001B00002F050FD03F03CFB03F095FC03F0F8FD6A
:1001C00004F072FE04F048F804F0D5F94FF4E13081
:1001D00004F074FC00214FF6FF7004F029FD0021AB
:1001E0004FF6FF7004F078FD03F0C8FC42F2CF0137
:1001F000632004F041FB42F2CF01632004F070FB66
:1002000003F0A2FFB2EE0C0A00214FF4967003F047
:10021000EEFE40F6B83002F0FDFCB3EE040A002119
:100220004FF4967003F0B0FE40F6B83002F0F2FCE6
:100230009FED550A00214FF4967003F048FF40F6F9
:10024000B83002F0E7FC9FED510A00214FF49670A0
:1002500003F000FF96E04E4804F01EFAD8B94C486F
:10026000407880004B490880494880784849C978DF
:100270000844A0F5807080004749086044488078B1
:100280004349C978401A8000444908604048807951
:100290004349087070E04348007801286CD1424817
:1002A00090ED000AF7EE000A70EEC00A3A4890EDB1
:1002B000000AB8EEC00A20EE800A3C48007840B23E
:1002C000C00000EE900AF8EEE00A374890ED001A00
:1002D00000EE810ABDEEC00A2F4880ED000A3248C8
:1002E00090ED000AF7EE000A70EEC00A2B4890ED80
:1002F000000AB8EEC00A20EE800A2C48407840B2CE
:10030000C00000EE900AF8EEE00A274890ED001ACF
:1003100000EE810ABDEEC00A204880ED000A2348A5
:1003200080781F490870012008210423CDE90010BE
:10033000194850210268002002F06DFF01200821B9
:100340000423CDE9001015485A210268002002F06C
:1003500062FF012008210346CDE900101048027811
:100360006421002002F057FF0A2002F053FC02F043
:1003700064FD00200B4908700848016806480068C1
:1003800003F0FDFF67E700000000AA420000B4424E
:10039000D404002004000020080000200C000020ED
:1003A000100000204A000020140000204600002019
:1003B000704700BFFEE700BFFEE700BFFEE700BFDB
:1003C000FEE7704770477047704700000CB500208B
:1003D000019000907648006840F4803074490860CD
:1003E00000BF7348006800F4003000900198401C82
:1003F0000190009818B90198B0F5A04FF1D16C4860
:10040000006800F4003010B10120009001E00020ED
:1004100000900098012846D165484030006840F0BF
:1004200080506349403108606248006840F44040B1
:10043000604908605E48083000685D49083108601E
:100440000846006840F4004008600846006840F430
:10045000A05008605848091F0860081F006840F055
:100460008070091F086000BF5148006800F00070EC
:100470000028F9D040F20570504908604C48083017
:10048000006820F003004A49083108600846006807
:1004900040F00200086000BF45480830006800F0E6
:1004A0000C000828F8D10CBD10B54548006840F490
:1004B0007000434908603E48006840F001003C4934
:1004C000086000203A4908310860394800683D4911
:1004D0000840374908603C48091D0860081F00684B
:1004E00020F48020091F0860002031490C31086089
:1004F000FFF76CFF4FF0006031498039086010BD94
:1005000070B500200022022300240221284D083566
:100510002D6805F00C0020B1042806D0082834D13D
:1005200007E02A4D2A4E356033E02A4D284E3560CB
:100530002FE01F4D2D1D2D68C5F380541C4D2D1D22
:100540002D6805F03F0154B1224DB5FBF1F5184E71
:10055000361D3668C6F3881605FB06F209E01B4D0A
:10056000B5FBF1F5124E361D3668C6F3881605FB4D
:1005700006F20F4D2D1D2D68C5F301456D1C6B0056
:10058000B2FBF3F5124E356003E0104D104E3560AE
:1005900000BF00BF064D08352D68C5F303150E4E8C
:1005A000705D0B4D2D68C540094E356070BD000073
:1005B000003802400070004008544007003C0240F0
:1005C00088ED00E0FFFFF6FE103000240024F40068
:1005D0001800002000127A001C0000200648804706
:1005E00006480047FEE7FEE7FEE7FEE7FEE7FEE718
:1005F000FEE7FEE7FEE7FEE7A90400088901000820
:1006000032490143324A1160704770B5002100231E
:100610000F22C4781CB32E4C246804F4E064C4F5A3
:10062000E064C4F30721C1F10404E3B20A41447851
:100630009C40E1B28478144021430C07210E254CE4
:1006400005786155047804F01F050124AC40057855
:100650006D11AD0005F1E025C5F8004109E0047811
:1006600004F01F050124AC401B4D0678761145F8B7
:10067000264070BD194A0A400243154B1B1F1A60E1
:10068000704739B1124A121D12680243104B1B1DEC
:100690001A6006E00E4A121D126882430C4B1B1DA5
:1006A0001A607047042808D14FF0E021096941F031
:1006B00004014FF0E022116107E04FF0E0210969E9
:1006C00021F004014FF0E022116170470000FA05AB
:1006D0000CED00E000E400E080E100E080FFFF1F9F
:1006E00010B50121080200F088FE00214FF480704F
:1006F00000F083FE10BD30B5024600200023506894
:10070000F84C20400D790C6844EA052420435060E1
:100710009068F54C2040D1E903542C438D682C435C
:100720004D7944EA450420439060D06A20F470007B
:100730000C7D641EE4B2234340EA0350D06230BD16
:1007400000210160017141718160C160016101217D
:10075000017570470021E54A1168E54A1140D0E96A
:1007600000231A4383681A43C3681A431143E14ABA
:10077000C2F8041370470021016041608160C160CC
:10078000704721B1826842F00102826003E0826812
:1007900022F00102826070470A4600214168D64B70
:1007A00019401143416070474162826270470A46B6
:1007B0000021416821F01F0111434160704738B1A9
:1007C000CA49096841F40001CA4AC2F8041306E0A4
:1007D000C649096821F40001C64AC2F804137047EB
:1007E00038B1C249096841F48001C24AC2F8041311
:1007F00006E0BE49096821F48001BE4AC2F804132C
:100800007047F0B504460D4600200021092D11DD8A
:10081000E068A5F10A0606EB4607072606FA07F187
:100820008843A5F10A0606EB460603FA06F10843DB
:10083000E0600CE0206905EB4507072606FA07F1A2
:10084000884305EB450603FA06F108432061072AB1
:100850000FDA606B561E06EB86071F2606FA07F1B5
:100860008843561E06EB860605FA06F108436063C8
:1008700022E00D2A0FDA206BD61F06EB86071F2613
:1008800006FA07F18843D61F06EB860605FA06F13D
:100890000843206310E0E06AA2F10D0606EB86072C
:1008A0001F2606FA07F18843A2F10D0606EB86061D
:1008B00005FA06F10843E062F0BD816841F080412D
:1008C00081607047014600208A6802F080420AB1C8
:1008D000012000E00020704721B1826842F480626C
:1008E000826003E0826822F480628260704721B1F6
:1008F000826842F00202826003E0826822F0020213
:100900008260704710B50A4600210023416821F437
:100910006041531E41EA4331416010BD21B142683C
:1009200042F40062426003E0426822F400624260E6
:1009300070470146C86C80B270476C48001D006863
:10094000704721B1826842F48072826003E082685D
:1009500022F480728260704721B1826842F4007292
:10096000826003E0826822F400728260704738B1CE
:100970005E49096841F400515E4AC2F8041306E07A
:100980005A49096821F400515A4AC2F804137047C1
:10099000F0B504461546002000220026092911DD85
:1009A000E068A1F10A0707EB470C072707FA0CF2EA
:1009B0009043A1F10A0707EB470703FA07F2104338
:1009C000E0600CE0206901EB410C072707FA0CF20C
:1009D000904301EB410703FA07F210432061A06B3B
:1009E000C0F30156EF1C06F1010CA7EB0C0707EB57
:1009F000870C1F2707FA0CF29043EF1C06F1010C3D
:100A0000A7EB0C0707EB870701FA07F21043A06377
:100A1000F0BD10B50A4600210023816B21F440117E
:100A2000531E41EA0351816310BD08B500230093B2
:100A30000090009B0B440093009B1A6008BD0A467F
:100A40000021816821F470211143816070470A46BA
:100A50000021816821F44011114381607047816851
:100A600041F4800181607047014600208A6802F4E9
:100A700080020AB1012000E00020704721B14268E5
:100A800042F48062426003E0426822F48062426085
:100A9000704721B1426842F48052426003E04268EC
:100AA00022F480524260704708B502460020009050
:100AB000009201F12800009B184400900098006803
:100AC00080B208BD10B50B460021D9B2012404FA4A
:100AD00001F11AB144680C43446002E044688C435D
:100AE000446010BDFFFEFFFCFDF7FFC00423014082
:100AF000E030FCFF00200140FFFD3FFF02460020E8
:100B000013680B400BB1012000E000207047CA437E
:100B10000260704770B502460020002300240B12CB
:100B2000556801268E4005EA060415681D4015B17A
:100B30000CB1012000E0002070BD00220A12D34356
:100B400003607047002041490860091D0860091DC5
:100B50000860091D08603E483C4914310860704730
:100B600000213A498279002A3AD00A46126803687D
:100B70009A430B461A600A1D126803689A430B1DBC
:100B80001A60027911440A6803681A430A602F4AFE
:100B90000832126803689A432C4B08331A601A1DF6
:100BA000126803689A43294B0C331A604279102A61
:100BB0000ED11A1F126803681A43244B08331A60B7
:100BC0001A1D126803681A43204B0C331A600DE09B
:100BD0001E49427911440A6803681A430A6005E015
:100BE000027911440A6803689A430A607047002139
:100BF000016001710C21417100218171704713491D
:100C0000103109680143114A1032116070470146E2
:100C100000200E4A143212680A400AB1012000E096
:100C200000207047094914310860704701460020D0
:100C3000064A143212680A400AB1012000E000207E
:100C4000704702491431086070470000003C0140C1
:100C5000FFFF7F0010B504469848844208D1012167
:100C6000084600F086FB0021012000F082FB76E0C0
:100C70009348844208D10121022000F07AFB002130
:100C8000022000F076FB6AE08E48844208D1012100
:100C9000042000F06EFB0021042000F06AFB5EE0FF
:100CA0008948844208D10121082000F062FB00211C
:100CB000082000F05EFB52E08448844208D1012104
:100CC000102000F056FB0021102000F052FB46E0FF
:100CD0007F48844208D10121202000F04AFB0021F6
:100CE000202000F046FB3AE07A48844208D10121F6
:100CF000402000F03EFB0021402000F03AFB2EE0B7
:100D00007548844208D10121802000F032FB002187
:100D1000802000F02EFB22E07048844208D101219F
:100D2000801500F026FB0021A01500F022FB16E044
:100D30006B48844208D10121401500F01AFB0021C4
:100D4000601500F016FB0AE06648844207D10121D5
:100D5000001500F00EFB0021201500F00AFB10BD6D
:100D6000F0B50A4600210023002400BF3DE0012524
:100D700005FA01F3156805EA03049C4234D10568BD
:100D80004F000326BE40B543056015794E00B540BF
:100D90000668354305601579012D02D01579022DBD
:100DA00016D185684F000326BE40B543856055794E
:100DB0004E00B540866835438560456801268E4003
:100DC000B5434560456896798E40B6B23543456077
:100DD000C5684F000326BE40B543C560D5794E00B7
:100DE000B540C6683543C560491C1029BFD3F0BD66
:100DF0004FF6FF7101600021017141718171C17174
:100E0000704708B54FF480320092009A0A4300926E
:100E1000009AC261C161009AC261C2690092C2694E
:100E2000009208BD0246002013690B400BB101205F
:100E300000E0002070470146086980B27047024612
:100E4000002053690B400BB1012000E000207047E7
:100E50000146486980B270470183704741837047FB
:100E60000AB1018300E041837047416170474269E4
:100E70004A4042617047F0B5002300244D07ED0E53
:100E800002FA05F3CE1000F1200555F826504E0762
:100E9000F70E0F26BE40B543CF1000F1200646F8EE
:100EA0002750CE1000F1200555F8265045EA0304DE
:100EB000CE1000F1200545F82640F0BD00000240AC
:100EC0000004024000080240000C024000100240F2
:100ED0000014024000180240001C024000200240A2
:100EE0000024024000280240F948006840F0010058
:100EF000F74908600020F64908310860F4480068A6
:100F0000F4490840F2490860F348091D0860F348B5
:100F1000EF4984310860F0481038091D0860EC483A
:100F2000006820F48020EA4908600020E8490C317C
:100F30000860E7498C31086070470021E44A921C40
:100F4000117011460870704710B501460022002349
:100F500000204A11012A02D1DD4C236808E0022A50
:100F600003D1DB4C7034236802E0D94C743423681D
:100F700001F01F02012494401C400CB1012000E04C
:100F8000002010BD38B5002000900024002500BFCF
:100F90003120FFF7D9FF05460098401C00900098CB
:100FA000B0F5A04F01D0002DF2D03120FFF7CCFFDB
:100FB00008B1012400E00024204638BD014600208D
:100FC000C34A106820F0F80040EAC1001060704782
:100FD000C349086070470021BD4A7032117011701A
:100FE000012802D004280AD104E00121B84A703255
:100FF000117005E00521B64A7032117000E000BFA3
:1010000000BF7047B7490860704770B5049C41EA5B
:1010100082150126C6EB530645EA0645054345EA17
:101020000465AB4E361D356070BDAD49086670472E
:10103000820142EA0172A64B84331A607047A849C4
:101040008866704710B5830143EA016343EA02737F
:101050009F4C8834236010BDA14908677047A049A0
:10106000C864704702460020994B0833186820F086
:10107000EC6042EA01031843954B0833186070474F
:1010800002460020924B0833186820F0784042EA6C
:10109000010318438E4B0833186070470146002047
:1010A0008B4A0832106820F0030008431060704734
:1010B00087480830006800F00C00704701460020A7
:1010C000834A0832106820F0F0000843106070472F
:1010D000014600207E4A0832106820F4E0500843A0
:1010E0001060704701460020794A0832106820F4E9
:1010F000604040EAC10010607047F0B50021002256
:101100000024022500260223714F08373F6807F0AC
:101110000C0121B1042905D0082937D105E0724F0F
:10112000076036E0714F076033E0694F3F1D3F684D
:10113000C7F38056664F3F1D3F6807F03F036EB10F
:101140006A4FB7FBF3F7DFF888C10CF1040CDCF849
:1011500000C0CCF3881C07FB0CF40CE0624FB7FB1B
:10116000F3F7DFF86CC10CF1040CDCF800C0CCF331
:10117000881C07FB0CF4564F3F1D3F68C7F301471F
:101180007F1C7D00B4FBF5F7076002E0564F076057
:1011900000BF00BF4E4F08373F6807F0F001090954
:1011A000534F7A5C0768D7404760494F08373F681C
:1011B00007F4E051890A4E4F7A5C4768D740876050
:1011C000434F08373F6807F46041490B484F7A5C4A
:1011D0004768D740C760F0BD002100F44072B2F507
:1011E000407F0AD13A4A0832116821F4F811414A85
:1011F00002401143364A08321160354A7032126893
:10120000C0F30B031A43324B70331A6070473549F1
:10121000443908607047334940390860704736499F
:101220000860704701460020294A8C32106820F07F
:101230001F004A1E1043264A8C3210607047014638
:101240000020234A8C32106820F4F8504A1E40EAED
:1012500002201F4A8C3210607047014600201C4A51
:101260008C32106820F4401008431060704701462B
:101270000020174A8C32106820F4400008431060A8
:10128000704701460020124A8C32106820F440302A
:1012900008431060704719490860704739B10C4A1B
:1012A0003032126802430A4B30331A6006E0084AB3
:1012B000303212688243064B30331A607047F9B1FE
:1012C000034A343212680243014B34331A601CE083
:1012D00000380240FFFFF6EA103000240030002002
:1012E00000004742800E47420024F40000127A00BA
:1012F0002C000020FFFCFF0F5C014742E011474239
:101300008F4A126882438E4B1A60704739B18C4AFB
:10131000121D126802438A4B1B1D1A6006E0884AA0
:10132000121D12688243864B1B1D1A60704739B12B
:10133000834A0C3212680243814B0C331A6006E078
:101340007F4A0C32126882437D4B0C331A6070471F
:1013500039B17B4A103212680243794B10331A605C
:1013600006E0774A103212688243754B10331A60D8
:10137000704739B1724A243A12680243704B243BD9
:101380001A6006E06E4A243A126882436C4B243B92
:101390001A60704739B16A4A203A12680243684BB2
:1013A000203B1A6006E0664A203A12688243644B8A
:1013B000203B1A60704739B1614A1C3A12680243F7
:1013C0005F4B1C3B1A6006E05D4A1C3A1268824380
:1013D0005B4B1C3B1A60704739B1594A143A12688A
:1013E0000243574B143B1A6006E0554A143A126800
:1013F0008243534B143B1A60704739B1504A103A3C
:10140000126802434E4B103B1A6006E04C4A103AF9
:10141000126882434A4B103B1A60704739B1484A00
:101420001C3212680243464B1C331A6006E0444AE1
:101430001C3212688243424B1C331A60704739B128
:101440003F4A2032126802433D4B20331A6006E0C7
:101450003B4A203212688243394B20331A6070476E
:1014600039B1374A243212680243354B24331A60AB
:1014700006E0334A243212688243314B24331A6027
:10148000704739B12E4A2C32126802432C4B2C3350
:101490001A6006E02A4A2C3212688243284B2C3309
:1014A0001A60704739B1264A303212680243244B21
:1014B00030331A6006E0224A303212688243204BF1
:1014C00030331A607047012808D11D493C31096842
:1014D00041F008011A4A3C32116007E018493C31DA
:1014E000096821F00801164A3C321160704739B191
:1014F000134A273A12780243114B273B1A7006E031
:101500000F4A273A127882430D4B273B1A707047D7
:101510000B484030006840F0807009494031086055
:10152000704701460020064A283A12680A400AB16C
:10153000012000E0002070470149263908707047FB
:101540003438024010B50446FB48844208D10121DA
:101550008014FFF752FF0021A014FFF74EFF3CE07C
:10156000F648844208D101210014FFF735FF00211D
:101570002014FFF731FF30E0F148844208D1012107
:10158000C013FFF729FF0021E013FFF725FF24E038
:10159000EC48844208D101214014FFF72EFF0021BE
:1015A0006014FFF72AFF18E0E748844209D10121BF
:1015B0000805FFF722FF00214FF48010FFF71DFF01
:1015C0000BE0E248844208D101214805FFF715FFEE
:1015D00000214FF40010FFF710FF10BD10B50022DE
:1015E000028802F441520B884C8823438C882343A1
:1015F000CC8823430C8923434C8923438C89234380
:10160000CC8923431A430280838B4FF2FF7423401B
:1016100083830B8A038210BD2DE9F04F002502233E
:1016200000244FF00109002200260027944690462E
:10163000B0F81CA04FF2400B0AEA0B0AA0F81CA05D
:101640004FF0020AA0F820A0858BD1F808A0BAF1CB
:10165000020F01D100BF82E0B1F804A0BAF1000F7F
:1016600002D14FF0010901E04FF00209DFF8E0A2DA
:10167000DAF800A00AF4000ABAF1000F09D0DFF886
:10168000D0A2DAF800A02AF4000ADFF8C4B2CBF83E
:1016900000A0DFF8BCA20AF17C0ADAF800A0CAF3C5
:1016A000881CDFF8ACA20AF17C0ADAF800A0CAF3C1
:1016B0000278DFF89CA2AAF1040ADAF800A00AF086
:1016C0003F07DFF88CA2AAF1040ADAF800A00AF4B6
:1016D000800ABAF5800F08D1DFF878A2BAFBF7FAD2
:1016E0000AFB0CFABAFBF8F607E0DFF86CA2BAFBCB
:1016F000F7FA0AFB0CFABAFBF8F6B1F806A0BAF54D
:10170000007F0ED14FEA162A0AEB8A0A4FEA4A0AEC
:10171000D1F808B0BAFBFBFA0AF1050A1FFA8AF2FF
:101720000FE04FEA491AB6FBFAFA0AEB8A0A4FEAC7
:101730004A0AD1F808B0BAFBFBFA0AF1050A1FFA07
:101740008AF24FF00A0AB2FBFAF202F00104A2EBAD
:10175000040ACAF34F034FF6FF7A0AEA0424022B65
:1017600001DBFF2B01DD02230024B1F806A04AEAC9
:10177000040A4AEA030AA0F820A0B1F804A0B1F8CC
:101780000CB04AEA0B0AB1F802B04AEA0B0AB1F807
:1017900000B04AEA0B0A4AF4006A4AEA0505858362
:1017A000BDE8F08F0021018041808180C1800181EE
:1017B00041818181C181072101827047002101801F
:1017C00041808180C1800221816000218181704738
:1017D00021B1028842F04002028004E002884FF604
:1017E000BF731A400280704721B1828B42F480623D
:1017F000828304E0828B4FF6FF331A408283704766
:1018000002884FF2FF731A40028002880A43028066
:101810007047B1F5804F04D1028842F480420280C3
:1018200004E002884BF6FF731A40028070474FF6BF
:10183000FF62914204D0028842F48072028004E088
:1018400002884FF6FF631A400280704721B18288F8
:1018500042F00402828004E082884FF6FB731A4053
:101860008280704721B1828842F01002828004E0B9
:1018700082884FF6EF731A408280704730B500229D
:101880000023848B4FF240052C408483022404847F
:10189000828B0C88B4F5007F01D00C8814B94FF40A
:1018A000807308E00C88B4F5407F03D00C88B4F551
:1018B000807F00D100238C888D892C434D882C4358
:1018C0001C4344F400642243828330BD014688896E
:1018D00070478181704721B1028842F40052028032
:1018E00004E002884DF6FF731A40028070470188B9
:1018F00041F480510180704702460020012901D047
:10190000108B00E0908A70470146088A70471AB130
:1019100083880B43838002E083888B4383807047F6
:1019200030B5002400230C110125A540ABB2AAB1AB
:1019300085881D43858014E0003001400038004058
:10194000003C004000340140005001400054014080
:101950000838024000127A000024F40085889D4374
:10196000858030BD0246002013890B400BB1012059
:1019700000E000207047CA4302817047F0B502467C
:10198000002000240023002501F00F070126BE409F
:10199000B4B20B1101269E40B3B2968806EA030545
:1019A0001689264016B10DB1012000E00020F0BDDF
:1019B00010B5002201F00F040123A3409AB2D343D3
:1019C000038110BD10B501218803FFF716FD00212A
:1019D0004FF48040FFF711FD10BD1C4908607047AF
:1019E0001B490862704730B500228B071C0F0F237C
:1019F00003FA04F2154B08338C1053F82430934348
:101A0000124C08348D1044F8253023468C1053F8BE
:101A100024308C07240F00FA04F423430B4C0834C1
:101A20008D1044F8253030BD0949DC31086070471D
:101A3000084908607047002004492031096801F412
:101A4000807109B1012000E000207047003801409A
:101A5000000027420004274210B50446FE48844295
:101A600008D101210846FFF7C8FC00210120FFF73B
:101A7000C4FC9DE0B4F1804F08D101210846FFF776
:101A8000ABFC00210120FFF7A7FC91E0F348844262
:101A900008D101210220FFF79FFC00210220FFF75F
:101AA0009BFC85E0EE48844208D101210420FFF729
:101AB00093FC00210420FFF78FFC79E0E948844281
:101AC00008D101210820FFF787FC00210820FFF73B
:101AD00083FC6DE0E448844208D101211020FFF727
:101AE0007BFC00211020FFF777FC61E0DF48844297
:101AF00008D101212020FFF76FFC00212020FFF7F3
:101B00006BFC55E0DA48844208D101210220FFF73E
:101B100074FC00210220FFF770FC49E0D5488442A4
:101B200009D101210804FFF768FC00214FF480303F
:101B3000FFF763FC3CE0D048844209D1012148040E
:101B4000FFF75BFC00214FF40030FFF756FC2FE05D
:101B5000CA48844209D101218804FFF74EFC0021C4
:101B60004FF48020FFF749FC22E0C548844208D1A9
:101B700001214020FFF730FC00214020FFF72CFC22
:101B800016E0C048844208D101218020FFF724FCE0
:101B900000218020FFF720FC0AE0BB48844207D1E7
:101BA00001218015FFF718FC0021A015FFF714FC98
:101BB00010BD00220288A84B98420ED0AC4B984230
:101BC0000BD0B0F1804F08D0A44B984205D0A44B65
:101BD000984202D0A34B984204D14FF68F731A401B
:101BE0004B881A43A04B984207D0A04B984204D090
:101BF0004FF6FF431A400B891A4302804B68C362B9
:101C00000B880385944B984202D0994B984201D19E
:101C10008B7A03860123838270474FF0FF31416046
:101C2000002101800181418081727047018582829B
:101C300070470A46002101884FF68F7319401143FF
:101C40000180704741627047C16270470146486A2F
:101C500070470146088D704721B1028842F00202A8
:101C6000028004E002884FF6FD731A40028070473C
:101C700021B1028842F00402028004E002884FF69B
:101C8000FB731A400280704721B1028842F0800243
:101C9000028004E002884FF67F731A40028070478A
:101CA00002884FF6F7731A40028002880A430280C6
:101CB000704702884FF6FF431A40028002880A43A9
:101CC0000280704721B1028842F00102028004E0E4
:101CD00002884FF6FE731A400280704770B50024E8
:101CE00000220023058C4FF6FE7635400584028CD9
:101CF0008388048B4FF68F752C40B51E2C400D88C1
:101D00002C43751E2A408D892A434D882A43524D03
:101D1000A84202D0564DA84213D14FF6F7752A407B
:101D2000CD892A434FF6FB752A408D882A434FF60A
:101D3000FF652B404FF6FF552B400D8A2B434D8AF4
:101D40002B43838004838D684563028470BD70B526
:101D5000002400220023058C4FF6EF7635400584E1
:101D6000028C8388048B48F6FF752C404FF6FF45A4
:101D70002C400D884FF6FF7606EA05252C434FF6DA
:101D8000DF752A408D8906EA05152A434D8806EA43
:101D900005152A43304DA84202D0354DA8421DD129
:101DA0004FF67F752A40CD894FF6FF7606EA051576
:101DB0002A434FF6BF752A408D8806EA05152A4347
:101DC0004FF6FF352B404FF2FF752B400D8A06EA88
:101DD00085052B434D8A06EA85052B4383800483C2
:101DE0008D688563028470BD70B5002400220023D5
:101DF000058C4FF6FF6635400584028C8388848B02
:101E00004FF68F752C404FF6FC752C400D882C43F7
:101E10004FF6FF552A408D894FF6FF7606EA0525D5
:101E20002A434D8806EA05252A430B4DA84202D0D5
:101E30000F4DA84238D14FF2FF752A40CD894FF699
:101E4000FF7606EA05252A434FF6FF352A408D889E
:101E500006EA05252A4319E000000140000400407D
:101E600000080040000C004000100040001400403A
:101E7000000401400040014000440140004801408E
:101E800000180040001C0040002000404EF6FF7586
:101E90002B404DF6FF752B400D8A06EA05152B43A6
:101EA0004D8A06EA05152B43838084838D68C563BC
:101EB000028470BD70B5002200230024058C4EF60C
:101EC000FF7635400584038C8488828B48F6FF7545
:101ED0002A404FF6FF452A400D884FF6FF7606EA66
:101EE00005252A434DF6FF752B408D8906EA0535F9
:101EF0002B434D8806EA05352B43FE4DA84202D000
:101F0000FD4DA84208D14BF6FF752C400D8A4FF6C7
:101F1000FF7606EA85152C43848082838D680564EC
:101F2000038470BD002101804180818081608181B6
:101F3000C18101824182704770B5034600200024B0
:101F40001846183001258D40ACB21D8CA5431D8468
:101F500009B108290AD100EB610005684FF68F76B8
:101F6000354005600568154305600FE00D1FC5F39A
:101F70004E052844056848F6FF763540056005683B
:101F80004FF6FF7606EA02263543056070BD4163D1
:101F9000704781637047C1637047016470470A46A8
:101FA0000021018B4FF68F73194011430183704755
:101FB0000A460021018B48F6FF7319404FF6FF7364
:101FC00003EA02231943018370470A460021818BEB
:101FD0004FF68F7319401143818370470A460021E1
:101FE000818B48F6FF7319404FF6FF7303EA022313
:101FF0001943818370470A460021018B4FF6F7731E
:1020000019401143018370470A460021018B4FF2AA
:10201000FF7319404FF6FF7303EA0223194301834C
:1020200070470A460021818B4FF6F7731940114320
:10203000818370470A460021818B4FF2FF7319405C
:102040004FF6FF7303EA02231943818370470A4660
:102050000021018B4FF6FB73194011430183704738
:102060000A460021018B4FF6FF3319404FF6FF73EC
:1020700003EA02231943018370470A460021818B3A
:102080004FF6FB7319401143818370470A460021C4
:10209000818B4FF6FF3319404FF6FF7303EA02239B
:1020A0001943818370470A460021018B4FF67F73E5
:1020B00019401143018370470A460021018BC1F387
:1020C0000E014FF6FF7303EA0223194301837047A1
:1020D0000A460021818B4FF67F731940114381839B
:1020E00070470A460021818BC1F30E014FF6FF7342
:1020F00003EA02231943818370470A460021018CB9
:102100004FF6FD7319401143018470470A460021C0
:10211000018C4FF6F77319401143018470470A464A
:102120000021018C4FF6DF7319404FF6FF7303EA6D
:1021300002131943018470470A460021018C4FF6AF
:102140007F7319404FF6FF7303EA021319430184AA
:1021500070470A460021018C4FF6FF5319404FF695
:10216000FF7303EA02231943018470470A460021E2
:10217000018C4FF2FF7319404FF6FF7303EA0223FD
:102180001943018470470A460021018C4DF6FF7304
:1021900019404FF6FF7303EA023319430184704775
:1021A00030B5002301248C40A3B2048C9C430484EA
:1021B000048C02FA01F5ADB22C43048430BD30B575
:1021C000002304248C40A3B2048C9C430484048C1C
:1021D00002FA01F5ADB22C43048430BD828B4FF27C
:1021E000FF331A408283828B4FF6FF7303EA012389
:1021F0001A4382837047F0B50C4615460021002231
:102200000026078C4EF6FF7C07EA0C070784818BBB
:10221000028C4FF6FF7707EA043640F6FF47394055
:102220004FF6FF7707EA052739434FF6FF7707EAAE
:102230000337394345F6FF773A4046F480573A432F
:1022400081830284F0BD828B4FF6F3731A40828340
:10225000828B0A4382837047F0B50C4615460021F5
:1022600000220026078C4FF6FF6C07EA0C07078454
:10227000818B028C4FF6FF7707EA04264FF60C7726
:1022800039404FF6FF7707EA03172F4339434FF2E0
:10229000FF573A4046F480773A4381830284F0BD89
:1022A000028B4FF2FF331A400283028B4FF6FF730B
:1022B00003EA01231A4302837047F0B50C46154622
:1022C000002100220026078C4FF6EF7C07EA0C075E
:1022D0000784018B028C4FF6FF7707EA041640F65D
:1022E000FF4739404FF6FF7707EA033739434FF688
:1022F000FF7703E0000001400004014007EA0527E2
:1023000039434FF65F773A4046F010073A4301836E
:102310000284F0BD028B4FF6F3731A400283028BE6
:102320000A4302837047F0B50C461546002100228F
:10233000068C4FF6FE773E400684018B028C4FF6EA
:102340000C7631407E1C06EA03162E4331434FF6CD
:10235000F576324044F00106324301830284F0BD39
:1023600070B505460C46208850B92389A28861883B
:102370002846FFF7D8FFE1882846FFF7CBFF25E086
:10238000208804280AD12389A28861882846FFF77B
:1023900094FFE1882846FFF783FF17E0208808288C
:1023A0000AD12389A28861882846FFF755FFE18872
:1023B0002846FFF748FF09E02389A288618828465C
:1023C000FFF719FFE1882846FFF708FF70BD0021DD
:1023D00001804180012181800021C18001817047FD
:1023E0002DE9F04105460C4600260127608808B912
:1023F000022600E00026A088012801D1022700E083
:1024000001272088A0B92389A28861882846FFF780
:102410008AFFE1882846FFF77DFF23893A46314647
:102420002846FFF74AFFE1882846FFF739FF13E007
:102430002389A28861882846FFF73FFFE188284664
:10244000FFF72EFF23893A4631462846FFF76BFFF8
:10245000E1882846FFF75EFFBDE8F0810146486B42
:1024600070470146886B70470146C86B704701464C
:10247000086C70470A884B881A438B881A43CB88AC
:102480001A430B891A434B891A438B891A43A0F8C4
:10249000442070470021018041808180C1800181FA
:1024A00041818181704731B1B0F8442042F400424B
:1024B000A0F8442005E0B0F84420C2F30E02A0F8D2
:1024C0004420704721B1828842F00402828004E0F7
:1024D00082884FF6FB731A408280704721B1828850
:1024E00042F00102828004E082884FF6FE731A40B7
:1024F000828070471AB183890B43838102E083890C
:102500008B43838170478182704702460020138A83
:102510000B400BB1012000E000207047CA4302824B
:10252000704730B50246002000230024158A05EAD2
:102530000103958905EA010413B10CB1012000E003
:10254000002030BDCA430282704741EA0203A0F86E
:10255000483070471AB183890B43838102E0838935
:102560008B438381704721B1828842F008028280C8
:1025700004E082884FF6F7731A4082807047018921
:102580004FF6F8721140018170470A460021018917
:102590004FF68F73194011430181704730B50446DF
:1025A0000D4629462046FFF7F0FF208940F007003E
:1025B000208130BD2DE9F04104460D4616461F46E8
:1025C000602D06D13B46012231462046FFF775FEBD
:1025D00005E03B46012231462046FFF7A4FE29468E
:1025E0002046FFF7D2FF208940F007002081BDE898
:1025F000F08130B50C4600210189C9B24FF6FF7554
:1026000005EA0325154325432943018130BD2DE902
:10261000F04105460E4617469846002443463A4682
:1026200031462846FFF7E5FF2C894FF6F870044045
:1026300044F007044FF68F70044044F070042C817E
:10264000BDE8F081F0B504460D4616461F463B46F0
:10265000324629462046FFF7CCFF208940F48040CF
:102660002081F0BD82884FF68F731A408280828865
:102670000A438280704702894FF6F8731A4002813C
:1026800002890A430281704702894FF67F731A401C
:10269000028102890A4302817047F0B50C46154653
:1026A0001E460021002200230189028B038C4FF675
:1026B000F877394021434FF6FC473A4040F2011782
:1026C0003A434FF6DD773B404FF6FF7707EA0617B0
:1026D0002F433B43018102830384F0BD21B18288F3
:1026E00042F08002828004E082884FF67F731A40B5
:1026F00082807047A0F850107047000010B5044663
:10270000FA48844208D101211020FEF776FE00210C
:102710001020FEF772FE57E0F548844209D10121EE
:102720004804FEF759FE00214FF40030FEF754FE36
:102730004AE0F048844209D101218804FEF74CFEAA
:1027400000214FF48020FEF747FE3DE0EA48844236
:1027500009D10121C804FEF73FFE00214FF40020FB
:10276000FEF73AFE30E0E548844209D10121080530
:10277000FEF732FE00214FF48010FEF72DFE23E01D
:10278000DF48844208D101212020FEF736FE0021D7
:102790002020FEF732FE17E0DA48844209D10121F9
:1027A0008807FEF719FE00214FF08040FEF714FE67
:1027B0000AE0D548844207D101214005FEF70CFE0E
:1027C00000216005FEF708FE10BD2DE9FF47054614
:1027D0000E460024A14600BFA046B08900B100BF4C
:1027E0002C8A24F44054F08804432C82AC8941F2B2
:1027F0000C608443B08831890843718908430443DD
:10280000AC81AC8A24F44074B0890443AC8268463D
:10281000FEF773FCB548854202D0B948854202D123
:10282000DDF80C9001E0DDF80890A88900F4004084
:1028300040B109EBC90000EB091031684900B0FB59
:10284000F1F707E009EBC90000EB091031688900D6
:10285000B0FBF1F76420B7FBF0F00401200964211C
:1028600001FB1078A88900F4004040B1322000EB51
:10287000C800B0FBF1F000F00700044308E032208C
:1028800000EB08106421B0FBF1F000F00F000443EE
:102890002C81BDE8FF874FF4165101600021818033
:1028A000C18001810C21418100218181704710B5D7
:1028B00002460020108A20F470600B884C88234365
:1028C0008C882343CC8823431843108210BD0021F9
:1028D000018041808180C180704721B1828942F4AA
:1028E0000052828104E082894DF6FF731A40828192
:1028F0007047028B02F47F420283028B0A430283F9
:10290000704721B1828942F40042828103E08289CA
:10291000C2F30E028281704721B1828A42F40062C2
:10292000828204E0828A4FF2FF731A4082827047EB
:10293000C1F308028280704701468888C0F308000E
:102940007047028A4FF6F0731A400282028A0A43E5
:102950000282704721B1828942F00202828104E042
:1029600082894FF6FD731A408281704782894FF247
:10297000FF731A40828182890A4382817047028AEA
:102980004FF6DF731A400282028A0A4302827047BE
:1029900021B1028A42F48042028204E0028A4BF6AC
:1029A000FF731A4002827047818941F001018181E1
:1029B000704721B1828A42F00802828204E0828A52
:1029C0004FF6F7731A4082827047028BD2B20283AD
:1029D000028B42EA01220283704721B1828A42F0CF
:1029E0002002828204E0828A4FF6DF731A408282DC
:1029F000704721B1828A42F01002828204E0828A0A
:102A00004FF6EF731A4082827047828A4FF6FB734B
:102A10001A408282828A0A438282704721B1828A66
:102A200042F00202828204E0828A4FF6FD731A406D
:102A3000828270471AB1838A0B43838202E0838AC1
:102A40008B4383827047F0B503460024002600259F
:102A5000002040F66A17B94200D100BF1846C1F302
:102A6000421401F01F06012707FA06F5012C01D1D7
:102A70000C3004E0022C01D1103000E014301AB107
:102A800007682F43076002E00768AF430760F0BDA7
:102A900002460020B1F5007F00D100BF13880B4033
:102AA0000BB1012000E00020704701F40072B2F584
:102AB000007F00D100BFCA430280704770B5024654
:102AC000002400230025002040F66A16B14200D100
:102AD00000BFC1F3421501F01F03012606FA03F3FC
:102AE000012D13D19689334017E0000000100140FA
:102AF0000044004000480040004C004000500040AE
:102B00000014014000780040007C0040022D02D1FA
:102B1000168A334001E0968A33400C12012606FAE9
:102B200004F41688344013B10CB1012000E00020F9
:102B300070BD10B50022002340F66A14A14200D1F6
:102B400000BF0A1201249440A3B2DC43048010BDEC
:102B500010B504466FF00400FDF7A4FDE11704EB87
:102B60005171C1F3C701394A11701046007800EB6A
:102B70004001C1EBC0104FF6FF7101EAC0003449BB
:102B8000088010BD0146314A12784A434FF0E023D5
:102B90005A6100229A611A46126942F001021A61D2
:102BA00000BF4FF0E022106900F001021AB100F4FA
:102BB0008032002AF5D04FF0E022126922F00102A3
:102BC0004FF0E0231A6100229A6170470146204AC3
:102BD00012884A434FF0E0235A6100229A611A4654
:102BE000126942F001021A6100BF4FF0E022106941
:102BF00000F001021AB100F48032002AF5D04FF043
:102C0000E022126922F001024FF0E0231A61002253
:102C10009A61704770B504464FF4077094FBF0F06A
:102C2000C6B24FF4077094FBF0F100FB114085B27F
:102C300005E04FF40770FFF7C9FF701EC6B2002E03
:102C4000F7D115B12846FFF7C1FF70BD3C00002049
:102C50003E0000201CB501210220FEF71FFB4FF4AF
:102C60000060009001208DF8040000208DF806001F
:102C700003208DF8050002208DF807006946024800
:102C8000FEF76EF81CBD0000000402401CB50121D7
:102C90001020FEF703FB00208DF8040003208DF8C0
:102CA000050001208DF807000720009069462048A4
:102CB000FEF756F81CBD10B5044614B101201D499D
:102CC00008701C48007808B31B48006838B11A48DF
:102CD000001D006818B1184808300068B0B90A2013
:102CE000FFF798FF0020134908701348006808B9DF
:102CF000012010BD1048001D006808B90220F8E747
:102D00000D480830006888B90320F2E70A480068D7
:102D100001280BD10848001D0068012806D106488B
:102D200008300068012801D1024908700020E0E75E
:102D300000100240410000200002424270B50446EB
:102D40000E462EB14FF40051F748FEF785F804E027
:102D50004FF40051F448FEF781F84FF48051F248E7
:102D6000FEF77CF800251BE04FF40041EE48FEF72B
:102D700075F804F0800028B14FF48041EA48FEF76E
:102D80006BF804E04FF48041E748FEF767F84FF432
:102D90000041E548FEF760F86006040E681CC5B205
:102DA000082DE1DB4FF48051DF48FEF755F84FF472
:102DB0000051DD48FEF750F870BD10B504461CB94F
:102DC0000021A620FFF7BAFF012C03D10021A72084
:102DD000FFF7B4FF10BD10B504463CB90021C82070
:102DE000FFF7ACFF0021A120FFF7A8FF012C07D1BE
:102DF0000021C020FFF7A2FF0021A020FFF79EFFC7
:102E000010BD10B500218D20FFF798FF0021142080
:102E1000FFF794FF0021AF20FFF790FF10BD10B522
:102E200000218D20FFF78AFF00211020FFF786FF89
:102E30000021AE20FFF782FF10BD70B500241CE01A
:102E400004F1B001C8B20021FFF778FF0021084665
:102E5000FFF774FF00211020FFF770FF002508E046
:102E6000B24901EBC501085D0121FFF767FF681C4E
:102E7000C5B2802DF4DB601CC4B2082CE0DB70BD51
:102E800070B500240CE0002506E00020A74901EB06
:102E9000C5010855681CC5B2802DF6DB601CC4B2A4
:102EA000082CF0DBFFF7C9FF70BDF0B514460B46E8
:102EB000CF1701EB5777C7F3C702CF1701EB57774F
:102EC000FF10A1EBC707FEB20123B340DDB24CB146
:102ED000964B03EBC0039B5C2B43944F07EBC0075F
:102EE000BB541AE0914B03EBC0039B5CDB438F4F59
:102EF00007EBC007BB548D4B03EBC0039B5C2B431C
:102F00008A4F07EBC007BB54884B03EBC0039B5CA5
:102F1000DB43864F07EBC007BB54F0BD2DE9FF4FE5
:102F200084B081468A460020029083460698A0EB32
:102F300009040798A0EB0A06CDF80490CDF800A08C
:102F4000002C01DD012705E00CB9002702E04FF05D
:102F5000FF376442002E02DD4FF0010806E016B98B
:102F60004FF0000802E04FF0FF386642B44201DD46
:102F7000254600E03546002003901EE0009AD1B2BD
:102F8000019AD0B2119AFFF790FF02982044029064
:102F9000B3440298A84205DD0298401B02900198B4
:102FA00038440190AB4504DDABEB050B0098404481
:102FB00000900398401C80B20390691C03988842DB
:102FC000DCDB08B0BDE8F08F2DE9F04306460F4684
:102FD00090460025444643E03A1BD1B27219D0B264
:102FE0000122FFF762FF3A1BD1B2721BD0B201225D
:102FF000FFF75BFF3A19D1B2721BD0B20122FFF783
:1030000054FF3A19D1B27219D0B20122FFF74DFF25
:103010007A19D1B23219D0B20122FFF746FF7A1BDA
:10302000D1B23219D0B20122FFF73FFF7A1BD1B2E1
:10303000321BD0B20122FFF738FF7A19D1B2321B0E
:10304000D0B20122FFF731FF6D1C05FB05F004FB38
:10305000040008FB1809B9F1000F01DD641E6D1EA4
:103060006000604308FB08F18842B5DABDE8F083F0
:103070002DE9FE4F0746884692461C460197CDF83B
:103080000080082C02D14FF006091FE02046E3170C
:1030900004EB5373DB1021464FEAE47C04EB5C7CC9
:1030A0004FEAEC0CA4EBCC0CBCF1000F02D04FF0BB
:1030B000010C01E04FF0000C6344224604EBD27C8B
:1030C0004FEA6C0C03FB0CF303F0FF09AAF120009C
:1030D000C6B200256BE0082C07D106EB4600144968
:1030E00001EB400010F805B02AE00C2C07D106EBEC
:1030F0004600104901EB800010F805B020E0102CCC
:1031000005D10D4800EB061010F805B018E0182C9A
:1031100007D106EBC600094901EB800010F805B0A5
:103120000EE0BDE8FE8F00000004024054000020C5
:10313000E0510008085400087C5800086C5E000844
:10314000002002901CE00BF0010028B141463846F7
:103150000C9AFFF7AAFE09E00C9808B9012000E0DC
:103160000020024641463846FFF79FFE4FEA6B0BB0
:1031700008F1010000F0FF080298401CC0B2029064
:1031800002980828DFDB781CC7B2082C0BD004EBB0
:10319000D4714A100199791A8A4204D1019F00988A
:1031A0000830C0B20090DDF80080681CC5B24D4503
:1031B00091DB00BFB5E72DE9F84106460F461446FE
:1031C0001D46DDF81C8013E0CDF8008022782B46E8
:1031D00039463046FFF74CFF082D02D1B01DC6B26C
:1031E00005E0284605EBD07106EB6101CEB2641C08
:1031F0002078202802DB20787E28E5DDBDE8F881F4
:1032000010B50246012000E050430B1EA1F101045D
:10321000E1B2F9D110BD2DE9FF4F82B006469146CB
:103220001F46DDE90F4A4FF0000B082C01D14FF08B
:10323000020B002530E0781B401EC1B20A20FFF7C8
:10324000DFFFB9FBF0F00A21B0FBF1F201FB12083D
:10325000B8F1000F0ED104EBD4710BEB610101FB4F
:103260000561C8B223463022CDE900A40399FFF7D7
:10327000FFFE0FE004EBD4710BEB610101FB056174
:10328000C8B208F13001CAB22346CDE900A40399BF
:10329000FFF7EEFE681CC5B2BD42CCDB06B0BDE850
:1032A000F08F2DE9FC430546884616469946DDE930
:1032B0000974002E10DA3B46F9A2414628460094D4
:1032C000FFF779FF691DC8B24B4672424146CDE90E
:1032D0000074FFF7A0FF0FE03B46F2A241462846EC
:1032E0000094FFF768FF691DC8B24B46324641465D
:1032F000CDE90074FFF78FFFBDE8FC832DE9FF4F98
:103300002DED020B84B0814690461F46DDE9134542
:103310004FF0000A00200390002609F1070000F09A
:10332000FF0A204604EBD071491001FB08A1491C9B
:10333000CEB204EBD07106EB6101C9B20391B5EED8
:10334000C00AF1EE10FA0FD22346D5A200954846E6
:103350000799FFF730FFF1EE400A9FEDD31A60EEB8
:10336000810AB0EE600A0CE02346CEA200954846E2
:103370000799FFF720FFDFEDCC0A60EE200AB0EEE0
:10338000600ADFEDC90A80EE201AFCEEC10A10EED9
:1033900090BA43465A46CDE9004550460799FFF793
:1033A0003AFF2346C1A2009530460799FFF703FF75
:1033B000012F04D0022F17D0032F14D161E0FDEEAE
:1033C000C00A10EE900A642190FBF1F00A2190FBF4
:1033D000F1F201FB120B3B465A46CDE90045079935
:1033E0000398FFF718FFD5E0FDEEC00A10EE900A33
:1033F0000A2190FBF1F0642190FBF1F201FB120035
:103400000A2829DAA34604EBDB7106EB6101C8B296
:1034100001230022CDE900450799FFF7FCFEFDEEF0
:10342000C00A10EE900A0A2190FBF1F0642190FB93
:10343000F1F201FB120004EBDB714910022202FBE6
:103440000161CDE900450290C8B2791ECBB2029A63
:103450000799FFF7E0FE13E0FDEEC00A10EE900AB8
:103460000A2190FBF1F0642190FBF1F201FB120BB9
:103470003B465A46CDE9004507990398FFF7CBFE36
:1034800088E0FDEEC00A10EE900A4FF47A7190FBCE
:10349000F1F201FB12000A2835DAA34604EBDB71D6
:1034A00006EB6101C8B201230022CDE9004507996E
:1034B000FFF7B1FE04EBDB714910022202FB016150
:1034C000C8B201230022CDE900450799FFF7A3FE0A
:1034D000FDEEC00A10EE900A4FF47A7190FBF1F203
:1034E00001FB120004EBDB714910032202FB0161B6
:1034F000CDE900450290C8B2B91ECBB2029A079935
:10350000FFF789FE45E0FDEEC00A10EE900A4FF489
:103510007A7190FBF1F201FB1200642827DAA346CE
:1035200004EBDB7106EB6101C8B201230022CDE997
:1035300000450799FFF76FFEFDEEC00A10EE900AF6
:103540004FF47A7190FBF1F201FB120BCDE90045CB
:1035500004EBD4714910022202FB0161C8B2791E4A
:10356000CBB25A4602940799FFF755FE11E0FDEEE3
:10357000C00A10EE900A4FF47A7190FBF1F201FB51
:10358000120B3B465A46CDE9004507990398FFF7D1
:1035900042FE00BF00BF0AB0BDE8F08F2DE9FC4F2E
:1035A0000746884616461C46BB46CDF80480204692
:1035B000E21704EB5272D2102146E31704EB537367
:1035C000DB10A4EBC3030BB1012300E000231A447A
:1035D000624392B20092002555E0102C05D1344888
:1035E00000EB461010F805A01BE0182C07D106EBE5
:1035F000C600304901EBC00010F805A011E0202CF6
:1036000005D12D4800EBC61010F805A009E0402CAC
:1036100005D12A4800EB462010F805A001E0BDE8DE
:10362000FC8F4FF000091CE00AF0010028B1414670
:1036300038460B9AFFF739FC09E00B9808B90120CE
:1036400000E00020024641463846FFF72EFC4FEAD4
:103650006A0A08F1010000F0FF0809F1010000F01A
:10366000FF09B9F1080FDFDB781CC7B2A7EB0B002D
:10367000A04204D15F4601980830C0B20190DDF845
:103680000480681C85B200988542A6DB00BFC6E7AF
:1036900008B5804689469246002600275CE0000077
:1036A0002D0000002000000000007A442E000000E1
:1036B000C86B0008C86D0008106E0008906E000806
:1036C0004FB91023324618218020CDF800A0FFF713
:1036D00065FF701CC6B2464522D14FF0000B1AE0C0
:1036E000012410E000250AE0AC4800EBC400415D75
:1036F000601EAA4A02EBC0004155681CC5B2082DE5
:10370000F2DB601CC4B2902CECDBFFF796FB0BF1F4
:10371000010000F0FF0B4FEA09105845E0DC0026DD
:10372000781CC7B2102F00D10027012410E000251B
:103730000AE09A4800EBC400415D601E974A02EB24
:10374000C0004155681CC5B2082DF2DB601CC4B234
:10375000902CECDBFFF771FBB2E72DE9FF4F05463C
:103760000E4617461C46DDF838904FF0000A0095CB
:10377000B3462046E21704EB5272D2102146E317FB
:1037800004EB5373DB10A4EBC3030BB1012300E084
:1037900000231A44D4B24FF0000845E00020039003
:1037A0003BE00D9810F80A0002900AF101001FFAA0
:1037B00080FA002001901DE0029800F0010028B17D
:1037C0004A4631462846FFF770FB0AE0B9F1000F80
:1037D00001D1012000E00020024631462846FFF7D3
:1037E00064FB029840100290701CC6B20198401C05
:1037F000C0B2019001980828DEDB681CC5B20098B1
:10380000281AB84204D1009D0BF1080000F0FF0B0C
:103810005E460398401CC0B203900398B842C0DBD8
:1038200008F1010000F0FF08A045B7DBBDE8FF8FFD
:103830001CB501210220FDF731FD01212020FDF7FB
:103840002DFD4FF20400009001208DF804000320AC
:103850008DF8050000208DF8060001208DF8070086
:1038600069464F48FDF77CFA4FF204014C48FDF7DA
:10387000F3FA4020009001208DF8040003208DF819
:10388000050000208DF8060001208DF8070069462C
:103890004448FDF765FA40214248FDF7DDFA402132
:1038A0004048FDF7DBFAC820FFF7B4F940213D4856
:1038B000FDF7D2FA0021AE20FFF740FA00210846BA
:1038C000FFF73CFA00211020FFF738FA00214020D2
:1038D000FFF734FA00218120FFF730FA0021CF20D2
:1038E000FFF72CFA0021A120FFF728FA0021C820B9
:1038F000FFF724FA0021A620FFF720FA0021A820D4
:10390000FFF71CFA00213F20FFF718FA0021D3200F
:10391000FFF714FA00210846FFF710FA0021D5201E
:10392000FFF70CFA00218020FFF708FA0021D920C8
:10393000FFF704FA0021F120FFF700FA0021DA2056
:10394000FFF7FCF900211220FFF7F8F90021DB2036
:10395000FFF7F4F900214020FFF7F0F900212020C3
:10396000FFF7ECF900210220FFF7E8F900218D2094
:10397000FFF7E4F900211420FFF7E0F90021A4206B
:10398000FFF7DCF90021A620FFF7D8F9FFF778FA56
:103990000021AF20FFF7D2F91CBD00005400002029
:1039A00000040240001402401CB501210420FDF770
:1039B00075FC42F23000009001208DF804000020D8
:1039C0008DF8060003208DF8050002208DF8070011
:1039D00069460248FDF7C4F91CBD0000000802401A
:1039E00070477FB505460C4601210846FDF79FFC50
:1039F0000195ADF800400020ADF80800ADF80200D8
:103A000069465648FEF7D5F8012211465348FEF79D
:103A100071FD1B208DF80C0003208DF80D00012096
:103A20008DF80E008DF80F0003A8FCF7EEFD0121C4
:103A30004A48FEF747F97FBD10B5002448480068A2
:103A400048490978884213D04548006838B9444845
:103A500008300068012801D1012400E00224404818
:103A60000068404908704048D0F82C023F4908706F
:103A70003B48001D006870B90A20FFF7CBF83848B2
:103A8000001D006838B93A480078012803D10324A2
:103A9000002037490870204610BD00B5012805D127
:103AA00034490978491C334A11700BE0022805D1CA
:103AB00030490978491E2F4A117003E0032801D1CB
:103AC000FFF78EFF00BD10B501212448FEF729FD48
:103AD00040B1FFF7B1FF0446FFF7DFFF01211F48A8
:103AE000FEF730FD10BD1CB501211020FDF730FCA4
:103AF00001208DF8040000208DF8060003208DF8C9
:103B0000050002208DF807004FF420600090694600
:103B10001948FDF725F900208DF8040003208DF8E1
:103B2000050001208DF807008002009069461248C8
:103B3000FDF716F94FF420610F48FDF78DF908489D
:103B40000068084908700848D0F82C020749087036
:103B500042F2CF010920FFF744FF1CBD00000140E5
:103B60002402424242000020000042424300002062
:103B700044000020450000200010024000B58DB038
:103B800001210846FDF78AFB01210802FDF7E0FB51
:103B900001200B9003208DF8300000208DF83300B9
:103BA0000BA97048FDF7DCF801210802FDF725FCA0
:103BB00000214FF48070FDF720FC002007900A9050
:103BC00009904FF48030089007A8FCF7C3FD00204F
:103BD00001908DF808008DF80900039005900120F0
:103BE0008DF8180001A96048FCF785FD01215E48A9
:103BF000FCF7C7FD0DB000BD10B504460723012238
:103C000021465948FCF7FDFD5748FCF756FE00BF1A
:103C100002215548FCF772FF0028F9D05248FCF702
:103C200088FE10BD2DE9F04107460C460025002610
:103C300008E03846FFF7E0FF05440520FEF7EAFFFD
:103C4000701CC6B2A642F4DBB5FBF4F080B2BDE84E
:103C5000F08110B514210020FFF7E4FF642100FB80
:103C600001F4E01704EB1050C0F3073010BD30B57D
:103C70002DED068B83B00546012D59D100249FED13
:103C80003B0AB0EE408A14210020FFF7CBFF044628
:103C900000EE104AB8EEC00A10EE100A01F09CF9CE
:103CA00041EC1A0B9FED320B53EC102B01F022F973
:103CB00041EC190B01F0A3F908EE100ABDEEC80A99
:103CC00010EE104A00EE104AB8EEC00A38EE400A74
:103CD000B0EE408A9FED280A28EE000AB0EE408A36
:103CE0000120082103462246CDE9001000215C2076
:103CF000FFF791FA012008232E2200210090622074
:103D0000FFF7B6F9012008210223BCEEC80A10EE25
:103D1000102ACDE9001000216820FFF77CFA01206D
:103D200008235622002100907820FFF7A1F914E023
:103D3000FFF78FFF04460120082102232246CDE928
:103D4000001000216820FFF766FA012008232522D1
:103D5000002100907820FFF78BF903B0BDEC068BB3
:103D600030BD0000000002400020014000000000C3
:103D70006666666666664A3F00007A4430B50B4662
:103D8000002112E000245D5C858006E0651CADB278
:103D90002C46B5F5FA5F00DD04E0058805F08005E6
:103DA000002DF3D000BF4C1CE1B29142EADB30BDE4
:103DB00000B587B001210920FDF770FA012110201C
:103DC000FDF7C6FA01214804FDF7B1FA07220921DF
:103DD000F848FDF750F807220A21F648FDF74BF89E
:103DE0004FF4C060059002208DF818008DF819007E
:103DF00000208DF81A0001208DF81B0005A9ED4860
:103E0000FCF7AEFF07220521EB48FDF734F8072247
:103E10000621E948FDF72FF86020059005A9E6483E
:103E2000FCF79EFF4FF4E13001900020ADF8080050
:103E3000ADF80A00ADF80C00ADF810000820ADF8A0
:103E40000E0001A9DD48FEF7C0FC01A9DC48FEF721
:103E5000BCFC0121D948FEF740FD0121D848FEF7FE
:103E60003CFD07B000BD2DE9FF41064688461546DA
:103E70001F460A9C002000900190029003900120B0
:103E80008DF80000FD208DF801008DF802802812C9
:103E90008DF80300E8B28DF804008DF80570200E4F
:103EA0008DF80600200C8DF80700200A8DF8080018
:103EB000E0B28DF8090000208DF80A008DF80B00A3
:103EC0006B208DF80C002EB90D226946BC48FFF717
:103ED00055FF04E00D226946B848FFF74FFFBDE8E3
:103EE000FF811CB50446B7A103C9CDE900012CB977
:103EF00005226946B248FFF741FF04E00522694602
:103F0000AE48FFF73BFF1CBD2DE9F84F04460D46B8
:103F100090469946DDE90AAB4B4642462946204683
:103F2000CDF800A0FFF79FFF002628E08DB9012CF7
:103F30000FD100F0D6FF60B9002707E00120FFF79E
:103F4000D0FF0220FEF766FE781CC7B2032FF5DB18
:103F500017E085B97CB900F0BDFF60B9002707E024
:103F60000020FFF7BEFF0220FEF754FE781CC7B208
:103F7000032FF5DB05E00120FEF74CFE761C5E45C5
:103F8000D4D300BFBDE8F88FF0B52DED028B83B020
:103F900004460D46B0EE408A9FED8C0A28EE000ADA
:103FA000BCEEC00A10EE107A9FED890A68EE000A96
:103FB00000EE104AB8EE401A80EE810ADFED850A65
:103FC00020EE200ABCEEC00A10EE106AB6F5FA6FB9
:103FD00001D24FF4FA662B46224600210120CDE99A
:103FE0000076FFF791FF03B0BDEC028BF0BDF0B59A
:103FF0002DED028B83B004460D46B0EE408A9FED56
:10400000730A28EE000ABCEEC00A10EE107A9FED8B
:10401000700A68EE000A00EE104AB8EE401A80EE10
:10402000810ADFED6C0A20EE200ABCEEC00A10EE19
:10403000106AB6F57A7F01D24FF47A762B46224683
:1040400001210846CDE90076FFF75EFF03B0BDEC25
:10405000028BF0BDF0B52DED028B83B004460D460A
:10406000B0EE408A9FED5C0A28EE000ABCEEC00A62
:1040700010EE107A9FED590A28EE000ADFED580A7B
:1040800080EE201AF0EE418A9FED510A68EE800A18
:1040900000EE104AB8EE401A80EE810ADFED4D0ABC
:1040A00020EE200ABCEEC00A10EE106A41F2883001
:1040B000864200D206462B46224600210846CDE91C
:1040C0000076FFF721FF03B0BDEC028BF0BDF0B529
:1040D0002DED028B83B004460D46B0EE408A9FED75
:1040E0003E0A28EE000ABCEEC00A10EE107A9FEDE0
:1040F0003B0A28EE000ADFED3A0A80EE201AF0EEC5
:10410000418A9FED330A68EE800A00EE104AB8EE4D
:10411000400A80EE801A9FED2F0A21EE000ABCEEC5
:10412000C00A10EE106AB6F5FA6F01D24FF4FA66C3
:104130002B46224601210020CDE90076FFF7E4FE60
:1041400003B0BDEC028BF0BDF8B5002400250026BD
:1041500000F0C7FE40B123480023782219460090A2
:104160000120FFF780FE00E0012500F0B3FE40B122
:104170001C4800237822194600901846FFF773FE6A
:1041800000E001243FE07DB900F0ABFE60B90027FC
:1041900007E00120FFF7A5FE0220FEF73BFD781C9B
:1041A000C7B2032FF5DB01254CBB00F093FE30BBFB
:1041B000002721E000000240000C024000100140F6
:1041C0000044004001FE98006B00000000004845DC
:1041D00000606A479A99993FE538DE4400004843F9
:1041E0000000B4433F420F000020FFF77AFE022098
:1041F000FEF710FD781CC7B2032FF5DB0124012068
:10420000FEF708FD761C04B11DB944F62060864215
:10421000B9D344F62060864219D35DB9002707E080
:104220000120FFF75EFE0220FEF7F4FC781CC7B207
:10423000032FF5DB5CB9002707E00020FFF751FEF4
:104240000220FEF7E7FC781CC7B2032FF5DB4FF422
:10425000FA70FEF7DFFCF8BD00B58BB00121142029
:10426000FDF71CF801210220FDF772F84FF44040E1
:10427000099001208DF8280000208DF82A000120E7
:104280008DF82B0003208DF8290009A95648FCF76A
:1042900067FD4FF440415448FCF7DEFD4FF4707069
:1042A000099002208DF8280000208DF82A008DF852
:1042B0002B0003208DF8290009A94C48FCF750FD7C
:1042C000032206214948FCF7D6FD0322072147486F
:1042D000FCF7D1FD032208214448FCF7CCFD032262
:1042E00009214248FCF7C7FDA720ADF8180040F2AD
:1042F000E73007900020ADF81A00ADF8200006A9BD
:104300003B48FDF756FC6020ADF804000120ADF8F5
:10431000060000200390ADF81000ADF80800ADF8DD
:104320001200ADF81400ADF8160001A93048FDF7F1
:10433000D5FC01A92E48FDF70AFD01A92C48FDF77F
:1043400053FD01A92A48FDF7B5FD08212848FDF7CE
:1043500052FE08212648FDF757FE08212448FDF7A4
:1043600060FE08212248FDF765FE01212048FEF786
:104370009AF801211E48FDF7A5FC0BB000BD70B5F1
:1043800004460D464FF480411748FCF767FD002CAA
:1043900008DD00211648FDF7FCFD21461448FDF715
:1043A000F6FD07E061421248FDF7F3FD00211048D9
:1043B000FDF7EDFD4FF400410B48FCF74FFD002DDC
:1043C00008DD29460A48FDF7E6FD00210848FDF70B
:1043D000E4FD07E000210648FDF7DDFD69420448E1
:1043E000FDF7DBFD70BD0000001002400008024038
:1043F0000004014000B585B00021CC48FDF7E8F984
:104400000020ADF800004FF48270ADF802000020EB
:10441000ADF80400ADF80600ADF808004FF40070E8
:10442000ADF80A003820ADF80C000020ADF80E0001
:104430000720ADF810006946BC48FDF7CFF8012110
:10444000BA48FDF7C5F905B000BD70B505460C4684
:104450000020B7490860284600F082F90646204649
:1044600000F07EF90120B349C1F89002304670BDDA
:104470002DE9F04107460C4615460020AC4908607E
:10448000384600F06DF98046002605E014F8010B6F
:1044900000F066F9701CC6B2AE42F7DB0120A449F9
:1044A00008604046BDE8F08110B50020A049091F12
:1044B00008600522A0492A20FFF7DAFF0121212008
:1044C000FFF7C3FF01212220FFF7BFFF00212520B6
:1044D000FFF7BBFF20213120FFF7B7FF0F21262078
:1044E000FFF7B3FF0F212020FFF7AFFF0120914915
:1044F000C1F88C0210BD2DE9F04107460D46164665
:1045000000208B490860384600F02AF980460024D4
:1045100005E0FF2000F024F92855601CC4B2B44225
:10452000F7DB0120824908604046BDE8F0811CB5F8
:1045300082A103C9CDE90001102000F087F905220E
:1045400069463020FFF794FF052269461020FFF7E7
:10455000D2FF002406E01DF80400A52800D003E0E7
:10456000601CC4B2052CF6DB00BF052C01D0012075
:104570001CBD0020FCE70EB501210846FCF78EFEAD
:104580001820019001208DF8080000208DF80A0005
:1045900003208DF8090001208DF80B0001A969485E
:1045A000FCF7DEFB4FF48070019000208DF80800CE
:1045B00001208DF80B0001A96248FCF7D1FB00F047
:1045C000E8F8FFF717FF00205949091F086001208C
:1045D0005849C1F890020CE0012008235AA200219A
:1045E00000900846FEF7E7FDFEF727FCC820FEF71F
:1045F00011FBFFF79CFF0028EED10120082354A2F5
:10460000002100900846FEF7D6FDFEF716FCFFF7E6
:104610004BFF0EBD70B5044600204549086020469A
:1046200000F09EF8FF2000F09BF80546012041496C
:10463000C1F89002284670BD70B50546102000F004
:1046400005F900203A49091F086020222946A020C8
:10465000FFF70EFF01203749C1F88C0200BF344834
:10466000703800680028FAD10720FFF7D3FF04460E
:1046700021462720FFF7E9FE04F0100028B1FF21B2
:10468000E120FFF7E2FE102070BD04F0200008B129
:104690002020F9E7FF20F7E770B50446102000F06E
:1046A000D5F80720FFF7B6FF054629462720FFF774
:1046B000CCFE05F0400050B1202221466120FFF7DA
:1046C0001AFFFF21E220FFF7C0FE002070BD01208D
:1046D000FCE710B500201649091F086005221F4994
:1046E0003020FFF7C5FE052213492A20FFF7C0FE40
:1046F00001212120FFF7A9FE01212220FFF7A5FEBD
:104700001A212420FFF7A1FE00212520FFF79DFE9E
:104710000F212620FFF799FE0E212020FFF795FE9E
:1047200001200449C1F88C0210BD00000030014096
:10473000900240420000404295700008A5A5A5A542
:10474000A5000000000002406572726F7200000058
:104750004E524632344C3031204F4B00907000089E
:1047600010B5044600BF02214148FDF7FBF80028C0
:10477000F9D021463E48FDF7ACF800BF01213C4886
:10478000FDF7F0F80028F9D03948FDF79FF8C0B2DE
:1047900010BD00B587B001210846FCF77FFD01215F
:1047A0000803FCF7D5FDE020059002208DF81800E5
:1047B00000208DF81A0003208DF8190001208DF8D3
:1047C0001B0005A92B48FCF7CBFA05221146294806
:1047D000FCF751FB052206212648FCF74CFB05227D
:1047E00007212448FCF747FB01210803FCF705FEDD
:1047F00000214FF48050FCF700FE0020ADF80000CF
:104800004FF48270ADF802000020ADF804000220E1
:10481000ADF806000120ADF808004002ADF80A002E
:104820003820ADF80C000020ADF80E000720ADF8E0
:10483000100069460E48FCF7D1FE01210C48FCF738
:10484000C7FFFF20FFF78CFF07B000BD10B504467F
:10485000074800884FF6C771084005490880084698
:1048600000882043088001210148FCF7B1FF10BDFA
:1048700000300140000002407FB505460C46012192
:104880001020FCF754FD0295ADF804400020ADF86F
:104890000600ADF80C0001A94548FDF78AF9012290
:1048A00011464348FDF726FE01214148FDF70AFA6B
:1048B00036208DF8000001208DF801008DF80200EF
:1048C0008DF803006846FBF7A0FE7FBD10B50121FF
:1048D0003748FDF726FE01213548FDF733FE10BDB0
:1048E0007FB505460C4601212020FCF720FD0295EE
:1048F000ADF804400020ADF80600ADF80C0001A9A9
:104900002C48FDF756F9012211462A48FDF7F2FD21
:1049100001212848FDF7D6F937208DF80000012045
:104920008DF801008DF802008DF803006846FBF752
:104930006CFE7FBD1CB501211E48FDF7F2FD01286C
:1049400030D19FED1D0A00F03AFA1C4890ED031A91
:10495000F0EE410A90ED021AB0EE410A00F000F9C3
:104960000A21174800F014F901201021CDE90010A8
:104970001248D0ED040AB0EE600A032301220A2196
:104980000020FEF7BBFC01201021CDE900100B48F0
:10499000D0ED020AB0EE600A032301221E2100209E
:1049A000FEF7ACFC01210348FDF7CCFD1CBD000067
:1049B00000100040001400400AD7233C10050020DE
:1049C000F50400200EB5FEF761F901218803FCF71C
:1049D000BFFC08210420FDF706F80C210420FDF798
:1049E00002F80D210420FCF7FEFF0E210420FCF745
:1049F000FAFF0F210420FCF7F6FF4FF471400090FE
:104A000000208DF804000C208DF8050001208DF8A1
:104A100006006846FCF7A4F83F208DF80800002047
:104A20008DF8090002208DF80A0001208DF80B0096
:104A300002A8FBF7EAFD0EBD10B50A20FEF7EAF862
:104A40004FF48070FCF7F2F848B11A48006810B9CA
:104A50000120194908704FF48070FCF7F2F810BD7E
:104A600010B50A20FEF7D6F84FF48050FCF7DEF8B8
:104A700058B11048001D006810B902200E49087096
:104A80004FF48050FCF7DDF80FE04FF40050FCF7D6
:104A9000CDF850B107480830006810B90320064926
:104AA00008704FF40050FCF7CCF84FF40040FCF7CE
:104AB000C8F810BD000242424000002010B588B086
:104AC000044601210820FCF7E9FB01218804FCF7DA
:104AD0002EFC072208215048FCF7CDF907220921B6
:104AE0004D48FCF7C8F94FF44070069002208DF84D
:104AF0001C008DF81D0000208DF81E0001208DF88F
:104B00001F0006A94448FCF72BF902940020ADF8D9
:104B10000C00ADF80E00ADF81000ADF814000C203C
:104B2000ADF8120002A93D48FDF74FFE01213B48B8
:104B3000FDF7D3FE012240F225513848FDF783FFEF
:104B400027208DF8040003208DF805008DF806005D
:104B500001208DF8070001A8FBF757FD08B010BD34
:104B60002F4A002155201346187010EE100AC3F882
:104B7000010010EE900AC3F80500002003E0135C6A
:104B80000B44D9B2401C0928F9DB25484172704713
:104B900070B505460E4600240CE000BF80211F487A
:104BA000FDF776FF0028F9D0295D1C48FDF7C0FE0F
:104BB000601CC4B2B442F0DB00BF40211748FDF7CF
:104BC00067FF0028F9D070BD10B540F22551134899
:104BD000FDF774FFC8B11148FDF7AEFEC1B2114830
:104BE0000478601C0F4A10700F4801551046007879
:104BF000032805DB00201146087001200B490870CE
:104C000040F225510548FDF794FF4FF458710348D1
:104C1000FDF78FFF10BD0000000C0240004800406F
:104C2000F504002049000020460000204A00002032
:104C300030B589B004460D4601210220FCF777FB10
:104C400001210220FCF72AFB022204218B48FCF7F9
:104C500012F9022205218948FCF70DF93020019054
:104C600002208DF8080000208DF80A0001208DF840
:104C70000B0001A98148FCF773F8ADF818500794B0
:104C80000020ADF81A00ADF8200006A97C48FCF71A
:104C900090FF00231A4603217948FDF7FEFC03A884
:104CA000FDF795FB0620ADF8140003A97448FDF745
:104CB00057FB01217248FDF731FC01221146704873
:104CC000FDF718FC00216E48FCF7BCFF01216C4881
:104CD000FCF7F8FF09B030BD30B589B004460D4689
:104CE00001210420FCF723FB01210820FCF7D6FA60
:104CF00002220C216348FCF7BEF802220D21614814
:104D0000FCF7B9F84FF44050019002208DF80800EC
:104D100000208DF80A0001208DF80B0001A95948E8
:104D2000FCF71EF8ADF8185007940020ADF81A00F3
:104D3000ADF8200006A95448FCF73BFF00231A46B3
:104D400003215148FDF7A9FC03A8FDF740FB06200D
:104D5000ADF8140003A94C48FDF702FB01214A48B5
:104D6000FDF7DCFB012211464748FDF7C3FB00219C
:104D70004548FCF767FF01214348FCF7A3FF09B052
:104D800030BD3F482430006800B200EE100AB8EE93
:104D9000C00A3E4880ED000A3B482430006800B25B
:104DA00000EE100AB8EEC00A384880ED010A002073
:104DB000334924310860344924310860704700B514
:104DC000F0EE400AFFF7DDFF304890ED000A9FED5E
:104DD000301AC0EE011A9FED2F0A21EE800A9FEDD6
:104DE0002E1A20EE010A80ED040A90ED010A9FEDD3
:104DF000281AC0EE011A9FED270A21EE800A9FEDC6
:104E0000261A20EE010A80ED050A90ED040AB1EEA3
:104E1000400A80EE201A80ED021A90ED050AB1EEEC
:104E2000400A80EE201A80ED031A00BD00B5FFF79E
:104E3000A8FF1648D0ED000A184890ED000AB8EE19
:104E4000C00A30EE800ABDEEC00A80ED000A0F48AD
:104E5000D0ED010A124890ED000AB8EEC00A30EE1B
:104E6000800ABDEEC00A80ED000A0C4800680D49BA
:104E700048600B480068C86000BD000000040240A4
:104E800000040040000C0240000800401005002013
:104E900000001945C3F54840EC51383E4C00002055
:104EA00050000020000500201CB501210220FCF765
:104EB000F5F94FF44070009000208DF804000320B5
:104EC0008DF8050001208DF8070069460848FBF7BA
:104ED00047FF1CBD10B54FF480710548FBF7A2FFDA
:104EE00010BD10B54FF400710148FBF79BFF10BDDA
:104EF000000402402DE9FE4F81EA030404F000445F
:104F000021F0004100944FF0000B23F0004350EAE1
:104F100001045ED052EA03045BD0C3F30A54C1F328
:104F20000A552C44A4F2F3340194A0FB0254C1F3BB
:104F3000130141F48011C3F3130343F4801301FB05
:104F4000024400FB034E840A970A44EA815447EA6C
:104F50008357A4FB076802958D0A05FB07854FEA76
:104F6000932C04FB0C542705029D4FEA065847EA90
:104F70001637B5EB08056EEB070C870E920E47EA65
:104F8000811742EA8312A7FB0201B6EB0B0164EB27
:104F900000042B0D43EA0C335E1844EB1C50DA4638
:104FA0005146E7FB0201C5F313044FEA0B3343EA12
:104FB00014534FEA0432019C43EA0603A4F10C04A3
:104FC0000294009CCDE900B400F07BF803B0BDE88A
:104FD000F08F00200146F9E700F0004230F0004079
:104FE0000AD0C10D01F56071C0F3160042EA01510B
:104FF000C20840071143704700200146704701F086
:10500000004330B421F0004150EA010206D00A0DFD
:10501000A2F56072C1F31301002A02DC30BC00204B
:105020007047440F44EAC104C100E01830BC00EBF3
:10503000C250AFF300800029A8BF7047401C490050
:1050400008BF20F00100704710B4B0FA80FC00FAED
:105050000CF050EA010404BF10BC704749B1CCF118
:10506000200421FA04F411FA0CF118BF01212143A4
:105070000843A3EB0C01CB1D4FEA00614FEA10205F
:1050800042BF002010BC704700EBC3501044002901
:10509000A4BF10BC7047401C490008BF20F00100AD
:1050A00010BC704710B5141E73F1000408DA401CE0
:1050B00041F1000192185B411A4301D120F0010037
:1050C00010BD2DE9F04D92469B4611B1B1FA81F227
:1050D00002E0B0FA80F22032904600F053F8044625
:1050E0000F4640EA0A0041EA0B0153465A4608437C
:1050F00013D0114653EA010019D0C8F140025046BE
:1051000000F04FF805460E4650465946424600F01C
:1051100039F8084305D0012004E020463946BDE8AF
:10512000F08D0020054346EAE0762C4337430A9889
:105130006305E40AA0EB08000022FD0A44EA475494
:105140000A3002D500200146E9E70105101969413E
:10515000DDE9084500196941BDE8F04DA2E700000E
:10516000064C074D06E0E06840F0010394E80700B4
:1051700098471034AC42F6D3FBF70AF89C7000084D
:10518000BC700008202A04DB203A00FA02F100205B
:1051900070479140C2F1200320FA03F31943904075
:1051A0007047202A04DB203A21FA02F000217047E0
:1051B00021FA02F3D040C2F120029140084319467F
:1051C000704702E008C8121F08C1002AFAD17047D0
:1051D0007047002001E001C1121F002AFBD1704777
:1051E0000000000000000000002F00000000070089
:1051F000070000147F147F1400242A7F2A12006203
:1052000064081323003649552250000005030000AE
:1052100000001C224100000041221C000014083E36
:1052200008140008083E0808000000A060000008FC
:105230000808080800006060000000201008040250
:10524000003E5149453E0000427F4000004261510E
:105250004946002141454B31001814127F100027A8
:1052600045454539003C4A4949300001710905036B
:1052700000364949493600064949291E000036369C
:1052800000000000563600000008142241000014FF
:1052900014141414000041221408000201510906DC
:1052A00000324959513E007C1211127C007F49495D
:1052B0004936003E41414122007F4141221C007F8E
:1052C00049494941007F09090901003E4149497A9C
:1052D000007F0808087F0000417F41000020404116
:1052E0003F01007F08142241007F40404040007F82
:1052F000020C027F007F0408107F003E4141413EC6
:10530000007F09090906003E4151215E007F09190D
:1053100029460046494949310001017F0101003F0A
:105320004040403F001F2040201F003F4038403F8A
:1053300000631408146300070870080700615149EE
:10534000454300007F41410000552A552A55000081
:1053500041417F00000402010204004040404040FF
:10536000000001020400002054545478007F484497
:10537000443800384444442000384444487F0038CE
:105380005454541800087E0901020018A4A4A47CF7
:10539000007F080404780000447D400000408084C1
:1053A0007D00007F102844000000417F4000007C09
:1053B00004180478007C0804047800384444443815
:1053C00000FC242424180018242418FC007C080461
:1053D000040800485454542000043F444020003C3A
:1053E0004040207C001C2040201C003C4030403CC1
:1053F000004428102844001CA0A0A07C0044645451
:105400004C44141414141414000000000000000094
:10541000000000000000FC0000000000020000008E
:10542000000C020C020000000000000090D0BCD074
:10543000BC900003000300001824FE448C0003020B
:10544000070201001824D8B04C80000300010201BB
:10545000C038E438E0000102020102020806000040
:105460000000000000000000000000F8040200003E
:1054700000010204000204F8000000040201000020
:105480009060F86090000000010000002020FC20E7
:1054900020000000010000000000000000000806DD
:1054A000000000002020202020000000000000005C
:1054B0000000000000000002000000000080601CEE
:1054C0000200040300000000F8040404F8000102D4
:1054D000020201000008FC000000000203020000BC
:1054E0001884442418000302020202000804242441
:1054F000D80001020202010040B088FC80000000D8
:10550000000302003C242424C40001020202010022
:10551000F824242CC0000102020201000C04E41C47
:105520000400000003000000D8242424D800010255
:105530000202010038444444F80000030202010062
:105540000000100000000000020000000000200029
:105550000000000006000000002050880402000047
:105560000000010290909090900000000000000068
:105570000002048850200002010000001804C42426
:105580001800000002000000F804E494F800010292
:105590000202020000E09CF080000203000003020F
:1055A00004FC2424D800020302020100F8040404CD
:1055B0000C0001020202010004FC0404F8000203D2
:1055C0000202010004FC24740C0002030202030026
:1055D00004FC24740C00020302000000F0080444E0
:1055E000CC4000010202010004FC2020FC04020364
:1055F000000003020404FC0404000202030202008F
:10560000000404FC040406040403000004FC24D089
:105610000C0402030200030204FC04000000020365
:1056200002020203FC3CC03CFC0003000300030038
:1056300004FC30C4FC04020302000300F804040468
:10564000F80001020202010004FC242418000203F5
:1056500002000000F8848404F8000102020705003B
:1056600004FC24649800020302000302182424446A
:105670008C000302020201000C04FC040C00000276
:105680000302000004FC0000FC040001020201000F
:10569000047C80E01C040000030000001CE03CE0EF
:1056A0001C00000300030000049C609C0400020333
:1056B00000030200041CE01C0400000203020000BE
:1056C0000C84641C04000203020203000000FE02BA
:1056D0000200000007040400000E30C000000000BB
:1056E00000010200000202FE0000000404070000A6
:1056F00000040204000000000000000000000000A0
:105700000000080808080808000002000000000067
:10571000000000000040A0A0C0000001020203023F
:1057200004FC2020C00000030202010000C0202071
:10573000600000010202020000C02024FC00000101
:105740000202030200C0A0A0C00000010202020089
:105750000020F82424040002030202000040A0A05C
:10576000602000070A0A0A0404FC2020C00002038B
:10577000020003020020E400000000020302000017
:10578000000020E4000008080807000004FC80E096
:1057900020200203020003020404FC0000000202B5
:1057A00003020200E020E020C00003000300030029
:1057B00020E02020C00002030200030200C02020DD
:1057C000C00000010202010020E02020C000080FFC
:1057D0000A02010000C02020E0000001020A0F08B8
:1057E00020E0402020000203020000000060A0A092
:1057F00020000002020203000020F8200000000048
:105800000102020020E00020E00000010202030289
:1058100020E0208060200000030100006080E08024
:10582000600000030003000020608060200002038D
:105830000003020020E0208060200808070100002B
:105840000020A0602000000203020200000020DE11
:105850000200000000070400000000FF000000003C
:10586000000F00000002DE2000000004070000001E
:105870000201020404020000000000000000000019
:10588000000000000000000000000000000000F820
:1058900000000000000000333000000000100C0683
:1058A000100C0600000000000000000040C078401E
:1058B000C0784000043F04043F040400007088FCEA
:1058C00008300000001820FF211E0000F008F00042
:1058D000E018000000211C031E211E0000F00888B3
:1058E000700000001E2123241927211010160E001D
:1058F000000000000000000000000000000000E0C8
:1059000018040200000000071820400000020418DC
:10591000E00000000040201807000000404080F038
:10592000804040000202010F01020200000000F06E
:10593000000000000101011F010101000000000042
:105940000000000080B070000000000000000000B7
:105950000000000000010101010101010000000040
:1059600000000000003030000000000000000000D7
:1059700080601804006018060100000000E01008B4
:105980000810E000000F102020100F00001010F889
:10599000000000000020203F2020000000700808C8
:1059A0000888700000302824222130000030088848
:1059B000884830000018202020110E000000C02070
:1059C00010F8000000070424243F240000F8088891
:1059D000880808000019212020110E0000E010881E
:1059E00088180000000F112020110E000038080850
:1059F000C83808000000003F000000000070880860
:105A000008887000001C222121221C0000E01008E0
:105A10000810E0000000312222110F00000000C039
:105A2000C0000000000000303000000000000080D6
:105A300000000000000080600000000000008040C6
:105A400020100800000102040810200040404040DF
:105A50004040400004040404040404000008102032
:105A60004080000000201008040201000070480877
:105A70000808F0000000003036010000C030C828DF
:105A8000E810E0000718272423140B000000C0389A
:105A9000E0000000203C23020227382008F8888814
:105AA00088700000203F202020110E00C030080820
:105AB00008083800071820202010080008F80808F7
:105AC0000810E000203F202020100F0008F88888F0
:105AD000E8081000203F20202320180008F88888BC
