:020000040800F2
:1000000038090020990500086D0300086F030008F7
:1000100073030008770300087B030008000000005A
:100020000000000000000000000000007F03000846
:100030008103000800000000830300088503000816
:10004000B3050008B3050008B3050008B3050008B0
:10005000B3050008B3050008B3050008B3050008A0
:10006000B3050008B3050008B3050008B305000890
:10007000B3050008B3050008B3050008B305000880
:10008000B3050008B3050008B3050008B305000870
:10009000B3050008B3050008B3050008C54A000809
:1000A000B3050008B3050008B3050008B305000850
:1000B000B3050008B3050008B3050008B305000840
:1000C000B3050008B3050008B3050008B305000830
:1000D000B3050008B3050008B3050008474C000845
:1000E000E74A0008B3050008B3050008B305000897
:1000F000B3050008B3050008B3050008B305000800
:10010000B3050008B3050008B3050008B3050008EF
:10011000B3050008B3050008A1490008094A000812
:10012000B3050008B3050008B3050008B3050008CF
:10013000B3050008B3050008B3050008B3050008BF
:10014000B3050008B3050008B3050008B3050008AF
:10015000B3050008B3050008B3050008B30500089F
:10016000B3050008B3050008B3050008B30500088F
:10017000B3050008B3050008B3050008B30500087F
:10018000B3050008B3050008DFF80CD005F084FAC9
:10019000004800479D010008380900202DED028B22
:1001A00090B04FF4A06000F009FAA82002F0AEFC75
:1001B00003F0D8FB02F02CFD03F018FB03F075FCF4
:1001C00003F0D8FD04F0D8FE04F08AF804F01FFA1A
:1001D0004FF4E13004F0B2FC4FF4E13004F0F2FEF1
:1001E00000214FF6FF7004F08BFD00214FF6FF70E9
:1001F00004F0DAFD03F0A4FC42F2CF01632004F026
:10020000A5FB42F2CF01632004F0D4FB03F0A5FF6D
:10021000C82002F0DDFCB2EE040A00214FF4167093
:1002200003F0C3FEC82002F0D3FC82E0414890ED09
:10023000020A10EE101A084604F0DEFF41EC180B1B
:1002400053EC182B3CA1684605F06AFA684604F0A6
:1002500012FF3D4804F06CFA28BB3B484078800010
:100260003A490880384880783749C9780844A0F569
:100270008070800036490860334880783249C978F8
:10028000401A8000334908602F488079324908704D
:100290000846007801281DD13048407A40F004001B
:1002A0002E49487216E02E480078012812D12D48B8
:1002B000407840B2C000264908602A48807840B2A1
:1002C000C000244908602748C078234908700020EE
:1002D000234908701F4801681D48006804F093F81E
:1002E0001D480078032802D004281FD10FE01E48C3
:1002F000006801280AD103F0F9FE00201A490860BD
:100300001648407A40F00200144948720FE016483F
:10031000006850B903F005FF0120134908600F4839
:10032000407A40F001000D49487200E000BF00BF74
:1003300000BF7BE71C05002073656E645F64617419
:10034000613A2025660D0A00E00400200400002028
:10035000080000200C0000201000002001050020F3
:10036000500000204A00002018000020704700BF05
:10037000FEE700BFFEE700BFFEE700BFFEE77047F5
:1003800070477047704700000CB500200190009046
:100390007648006840F480307449086000BF7348B4
:1003A000006800F4003000900198401C0190009813
:1003B00018B90198B0F5A04FF1D16C48006800F46D
:1003C000003010B10120009001E000200090009862
:1003D000012846D165484030006840F080506349AC
:1003E000403108606248006840F44040604908605D
:1003F0005E48083000685D490831086008460068BA
:1004000040F4004008600846006840F4A0500860CE
:100410005848091F0860081F006840F08070091FD5
:10042000086000BF5148006800F000700028F9D053
:1004300040F20570504908604C480830006820F0D0
:1004400003004A49083108600846006840F002008D
:10045000086000BF45480830006800F00C0008281C
:10046000F8D10CBD10B54548006840F47000434910
:1004700008603E48006840F001003C4908600020E8
:100480003A4908310860394800683D490840374911
:1004900008603C48091D0860081F006820F480209F
:1004A000091F0860002031490C310860FFF76CFF1C
:1004B0004FF0006031498039086010BD70B50020F0
:1004C0000022022300240221284D08352D6805F062
:1004D0000C0020B1042806D0082834D107E02A4DAA
:1004E0002A4E356033E02A4D284E35602FE01F4DEF
:1004F0002D1D2D68C5F380541C4D2D1D2D6805F054
:100500003F0154B1224DB5FBF1F5184E361D36684A
:10051000C6F3881605FB06F209E01B4DB5FBF1F5A5
:10052000124E361D3668C6F3881605FB06F20F4DCF
:100530002D1D2D68C5F301456D1C6B00B2FBF3F555
:10054000124E356003E0104D104E356000BF00BF05
:10055000064D08352D68C5F303150E4E705D0B4D25
:100560002D68C540094E356070BD0000003802405E
:100570000070004008544007003C024088ED00E055
:10058000FFFFF6FE103000240024F4001C000020C1
:1005900000127A00200000200648804706480047E5
:1005A000FEE7FEE7FEE7FEE7FEE7FEE7FEE7FEE723
:1005B000FEE7FEE7650400088901000832490143AF
:1005C000324A1160704770B5002100230F22C478B1
:1005D0001CB32E4C246804F4E064C4F5E064C4F356
:1005E0000721C1F10404E3B20A4144789C40E1B21E
:1005F0008478144021430C07210E254C0578615561
:10060000047804F01F050124AC4005786D11AD009D
:1006100005F1E025C5F8004109E0047804F01F0564
:100620000124AC401B4D0678761145F8264070BD7C
:10063000194A0A400243154B1B1F1A60704739B113
:10064000124A121D12680243104B1B1D1A6006E06D
:100650000E4A121D126882430C4B1B1D1A60704714
:10066000042808D14FF0E021096941F004014FF05E
:10067000E022116107E04FF0E021096921F0040157
:100680004FF0E022116170470000FA050CED00E028
:1006900000E400E080E100E080FFFF1F10B50121D1
:1006A000080200F088FE00214FF4807000F083FE05
:1006B00010BD30B50246002000235068F84C2040A1
:1006C0000D790C6844EA0524204350609068F54C8D
:1006D0002040D1E903542C438D682C434D7944EAE2
:1006E000450420439060D06A20F470000C7D641EA5
:1006F000E4B2234340EA0350D06230BD00210160E0
:10070000017141718160C160016101210175704712
:100710000021E54A1168E54A1140D0E900231A4357
:1007200083681A43C3681A431143E14AC2F80413A9
:1007300070470021016041608160C160704721B154
:10074000826842F00102826003E0826822F00102C6
:10075000826070470A4600214168D64B1940114318
:10076000416070474162826270470A4600214168D9
:1007700021F01F0111434160704738B1CA4909682F
:1007800041F40001CA4AC2F8041306E0C6490968E8
:1007900021F40001C64AC2F80413704738B1C249B7
:1007A000096841F48001C24AC2F8041306E0BE4958
:1007B000096821F48001BE4AC2F804137047F0B5FD
:1007C00004460D4600200021092D11DDE068A5F149
:1007D0000A0606EB4607072606FA07F18843A5F145
:1007E0000A0606EB460603FA06F10843E0600CE051
:1007F000206905EB4507072606FA07F1884305EB54
:10080000450603FA06F108432061072A0FDA606BF8
:10081000561E06EB86071F2606FA07F18843561E6A
:1008200006EB860605FA06F10843606322E00D2A0E
:100830000FDA206BD61F06EB86071F2606FA07F194
:100840008843D61F06EB860605FA06F108432063A7
:1008500010E0E06AA2F10D0606EB86071F2606FAF5
:1008600007F18843A2F10D0606EB860605FA06F1AC
:100870000843E062F0BD816841F0804181607047CB
:10088000014600208A6802F080420AB1012000E09F
:100890000020704721B1826842F48062826003E0E8
:1008A000826822F480628260704721B1826842F0DF
:1008B0000202826003E0826822F0020282607047D6
:1008C00010B50A4600210023416821F46041531EFF
:1008D00041EA4331416010BD21B1426842F40062F7
:1008E000426003E0426822F40062426070470146C1
:1008F000C86C80B270476C48001D0068704721B119
:10090000826842F48072826003E0826822F480721E
:100910008260704721B1826842F40072826003E015
:10092000826822F400728260704738B15E490968BB
:1009300041F400515E4AC2F8041306E05A490968BE
:1009400021F400515A4AC2F804137047F0B5044626
:100950001546002000220026092911DDE068A1F1DA
:100960000A0707EB470C072707FA0CF29043A1F19F
:100970000A0707EB470703FA07F21043E0600CE0B1
:10098000206901EB410C072707FA0CF2904301EBB9
:10099000410703FA07F210432061A06BC0F3015630
:1009A000EF1C06F1010CA7EB0C0707EB870C1F27C8
:1009B00007FA0CF29043EF1C06F1010CA7EB0C07B1
:1009C00007EB870701FA07F21043A063F0BD10B5EB
:1009D0000A4600210023816B21F44011531E41EA95
:1009E0000351816310BD08B5002300930090009B64
:1009F0000B440093009B1A6008BD0A4600218168E1
:100A000021F470211143816070470A4600218168FA
:100A100021F44011114381607047816841F48001E5
:100A200081607047014600208A6802F480020AB1A2
:100A3000012000E00020704721B1426842F480624A
:100A4000426003E0426822F480624260704721B154
:100A5000426842F48052426003E0426822F48052CD
:100A60004260704708B5024600200090009201F1F4
:100A70002800009B184400900098006880B208BDD0
:100A800010B50B460021D9B2012404FA01F11AB1C4
:100A900044680C43446002E044688C43446010BDE9
:100AA000FFFEFFFCFDF7FFC004230140E030FCFF28
:100AB00000200140FFFD3FFF0246002013680B406D
:100AC0000BB1012000E000207047CA43026070476C
:100AD00070B502460020002300240B125568012641
:100AE0008E4005EA060415681D4015B10CB10120C1
:100AF00000E0002070BD00220A12D343036070475B
:100B0000002041490860091D0860091D0860091D91
:100B100008603E483C4914310860704700213A495A
:100B20008279002A3AD00A46126803689A430B4633
:100B30001A600A1D126803689A430B1D1A60027935
:100B400011440A6803681A430A602F4A083212687F
:100B500003689A432C4B08331A601A1D1268036805
:100B60009A43294B0C331A604279102A0ED11A1F6E
:100B7000126803681A43244B08331A601A1D12685E
:100B800003681A43204B0C331A600DE01E4942796A
:100B900011440A6803681A430A6005E002791144A7
:100BA0000A6803689A430A60704700210160017176
:100BB0000C2141710021817170471349103109687E
:100BC0000143114A103211607047014600200E4A5D
:100BD000143212680A400AB1012000E00020704778
:100BE000094914310860704701460020064A143252
:100BF00012680A400AB1012000E000207047024953
:100C00001431086070470000003C0140FFFF7F0086
:100C100010B504469848844208D10121084600F0E6
:100C200086FB0021012000F082FB76E0934884429D
:100C300008D10121022000F07AFB0021022000F0FF
:100C400076FB6AE08E48844208D10121042000F03E
:100C50006EFB0021042000F06AFB5EE089488442BC
:100C600008D10121082000F062FB0021082000F0DB
:100C70005EFB52E08448844208D10121102000F03C
:100C800056FB0021102000F052FB46E07F488442D2
:100C900008D10121202000F04AFB0021202000F093
:100CA00046FB3AE07A48844208D10121402000F016
:100CB0003EFB0021402000F03AFB2EE075488442C4
:100CC00008D10121802000F032FB0021802000F0BB
:100CD0002EFB22E07048844208D10121801500F0EB
:100CE00026FB0021A01500F022FB16E06B48844291
:100CF00008D10121401500F01AFB0021601500F019
:100D000016FB0AE06648844207D10121001500F075
:100D10000EFB0021201500F00AFB10BDF0B50A46BD
:100D200000210023002400BF3DE0012505FA01F366
:100D3000156805EA03049C4234D105684F00032678
:100D4000BE40B543056015794E00B5400668354391
:100D500005601579012D02D01579022D16D185680F
:100D60004F000326BE40B543856055794E00B5401F
:100D7000866835438560456801268E40B5434560E9
:100D8000456896798E40B6B235434560C5684F00D8
:100D90000326BE40B543C560D5794E00B540C66850
:100DA0003543C560491C1029BFD3F0BD4FF6FF7114
:100DB00001600021017141718171C171704708B5F5
:100DC0004FF480320092009A0A430092009AC26166
:100DD000C161009AC261C2690092C269009208BDF5
:100DE0000246002013690B400BB1012000E00020F7
:100DF00070470146086980B2704702460020536977
:100E00000B400BB1012000E000207047014648690B
:100E100080B2704701837047418370470AB10183F4
:100E200000E0418370474161704742694A40426136
:100E30007047F0B5002300244D07ED0E02FA05F3CC
:100E4000CE1000F1200555F826504E07F70E0F265C
:100E5000BE40B543CF1000F1200646F82750CE1013
:100E600000F1200555F8265045EA0304CE1000F1A4
:100E7000200545F82640F0BD000002400004024075
:100E800000080240000C0240001002400014024022
:100E900000180240001C02400020024000240240D2
:100EA00000280240F948006840F00100F749086056
:100EB0000020F64908310860F4480068F449084009
:100EC000F2490860F348091D0860F348EF4984318E
:100ED0000860F0481038091D0860EC48006820F4EC
:100EE0008020EA4908600020E8490C310860E749A1
:100EF0008C31086070470021E44A921C1170114641
:100F00000870704710B501460022002300204A11E6
:100F1000012A02D1DD4C236808E0022A03D1DB4C10
:100F20007034236802E0D94C7434236801F01F0246
:100F3000012494401C400CB1012000E0002010BDB1
:100F400038B5002000900024002500BF3120FFF7B5
:100F5000D9FF05460098401C00900098B0F5A04FBE
:100F600001D0002DF2D03120FFF7CCFF08B10124D1
:100F700000E00024204638BD01460020C34A106826
:100F800020F0F80040EAC10010607047C3490860D3
:100F900070470021BD4A703211701170012802D0D3
:100FA00004280AD104E00121B84A7032117005E02A
:100FB0000521B64A7032117000E000BF00BF7047D3
:100FC000B7490860704770B5049C41EA8215012654
:100FD000C6EB530645EA0645054345EA0465AB4EB4
:100FE000361D356070BDAD4908667047820142EA22
:100FF0000172A64B84331A607047A849886670470F
:1010000010B5830143EA016343EA02739F4C8834BD
:10101000236010BDA14908677047A049C8647047A4
:1010200002460020994B0833186820F0EC6042EA31
:1010300001031843954B083318607047024600209F
:10104000924B0833186820F0784042EA01031843B5
:101050008E4B083318607047014600208B4A0832D7
:10106000106820F00300084310607047874808307C
:10107000006800F00C00704701460020834A0832E7
:10108000106820F0F000084310607047014600200F
:101090007E4A0832106820F4E05008431060704720
:1010A00001460020794A0832106820F4604040EA86
:1010B000C10010607047F0B5002100220024022515
:1010C00000260223714F08373F6807F00C0121B159
:1010D000042905D0082937D105E0724F076036E0B2
:1010E000714F076033E0694F3F1D3F68C7F380567B
:1010F000664F3F1D3F6807F03F036EB16A4FB7FB75
:10110000F3F7DFF888C10CF1040CDCF800C0CCF375
:10111000881C07FB0CF40CE0624FB7FBF3F7DFF819
:101120006CC10CF1040CDCF800C0CCF3881C07FB8C
:101130000CF4564F3F1D3F68C7F301477F1C7D00ED
:10114000B4FBF5F7076002E0564F076000BF00BF31
:101150004E4F08373F6807F0F0010909534F7A5C9A
:101160000768D7404760494F08373F6807F4E051A8
:10117000890A4E4F7A5C4768D7408760434F0837EB
:101180003F6807F46041490B484F7A5C4768D74095
:10119000C760F0BD002100F44072B2F5407F0AD173
:1011A0003A4A0832116821F4F811414A02401143C9
:1011B000364A08321160354A70321268C0F30B03A8
:1011C0001A43324B70331A6070473549443908600E
:1011D00070473349403908607047364908607047A6
:1011E00001460020294A8C32106820F01F004A1E58
:1011F0001043264A8C321060704701460020234A73
:101200008C32106820F4F8504A1E40EA02201F4A2F
:101210008C3210607047014600201C4A8C321068E6
:1012200020F4401008431060704701460020174A20
:101230008C32106820F4400008431060704701466B
:101240000020124A8C32106820F4403008431060AD
:10125000704719490860704739B10C4A303212683A
:1012600002430A4B30331A6006E0084A30321268F3
:101270008243064B30331A607047F9B1034A343267
:1012800012680243014B34331A601CE000380240FC
:10129000FFFFF6EA10300024003000200000474233
:1012A000800E47420024F40000127A003000002033
:1012B000FFFCFF0F5C014742E01147428F4A126872
:1012C00082438E4B1A60704739B18C4A121D1268E6
:1012D00002438A4B1B1D1A6006E0884A121D1268E1
:1012E0008243864B1B1D1A60704739B1834A0C320A
:1012F00012680243814B0C331A6006E07F4A0C32BD
:10130000126882437D4B0C331A60704739B17B4AB7
:10131000103212680243794B10331A6006E0774AA4
:10132000103212688243754B10331A60704739B11E
:10133000724A243A12680243704B243B1A6006E05A
:101340006E4A243A126882436C4B243B1A60704701
:1013500039B16A4A203A12680243684B203B1A604E
:1013600006E0664A203A12688243644B203B1A60CA
:10137000704739B1614A1C3A126802435F4B1C3B0B
:101380001A6006E05D4A1C3A126882435B4B1C3BC4
:101390001A60704739B1594A143A12680243574BE0
:1013A000143B1A6006E0554A143A12688243534BC4
:1013B000143B1A60704739B1504A103A1268024320
:1013C0004E4B103B1A6006E04C4A103A12688243BA
:1013D0004A4B103B1A60704739B1484A1C321268B8
:1013E0000243464B1C331A6006E0444A1C32126822
:1013F0008243424B1C331A60704739B13F4A203256
:10140000126802433D4B20331A6006E03B4A20320B
:1014100012688243394B20331A60704739B1374A1A
:10142000243212680243354B24331A6006E0334AF3
:10143000243212688243314B24331A60704739B129
:101440002E4A2C32126802432C4B2C331A6006E0D1
:101450002A4A2C3212688243284B2C331A60704778
:1014600039B1264A303212680243244B30331A60B5
:1014700006E0224A303212688243204B30331A6031
:101480007047012808D11D493C31096841F0080125
:101490001A4A3C32116007E018493C31096821F0D2
:1014A0000801164A3C321160704739B1134A273A95
:1014B00012780243114B273B1A7006E00F4A273A75
:1014C000127882430D4B273B1A7070470B4840300F
:1014D000006840F08070094940310860704701465B
:1014E0000020064A283A12680A400AB1012000E0AA
:1014F000002070470149263908707047343802408F
:1015000010B50446FB48844208D101218014FFF73E
:1015100052FF0021A014FFF74EFF3CE0F648844242
:1015200008D101210014FFF735FF00212014FFF737
:1015300031FF30E0F148844208D10121C013FFF7A8
:1015400029FF0021E013FFF725FF24E0EC48844247
:1015500008D101214014FFF72EFF00216014FFF78E
:101560002AFF18E0E748844209D101210805FFF766
:1015700022FF00214FF48010FFF71DFF0BE0E2482F
:10158000844208D101214805FFF715FF00214FF4DF
:101590000010FFF710FF10BD10B50022028802F402
:1015A00041520B884C8823438C882343CC882343A7
:1015B0000C8923434C8923438C892343CC892343BF
:1015C0001A430280838B4FF2FF74234083830B8A7C
:1015D000038210BD2DE9F04F0025022300244FF0B7
:1015E000010900220026002794469046B0F81CA06E
:1015F0004FF2400B0AEA0B0AA0F81CA04FF0020AB7
:10160000A0F820A0858BD1F808A0BAF1020F01D173
:1016100000BF82E0B1F804A0BAF1000F02D14FF090
:10162000010901E04FF00209DFF8E0A2DAF800A0BA
:101630000AF4000ABAF1000F09D0DFF8D0A2DAF8F4
:1016400000A02AF4000ADFF8C4B2CBF800A0DFF84B
:10165000BCA20AF17C0ADAF800A0CAF3881CDFF801
:10166000ACA20AF17C0ADAF800A0CAF30278DFF82B
:101670009CA2AAF1040ADAF800A00AF03F07DFF8FA
:101680008CA2AAF1040ADAF800A00AF4800ABAF5DA
:10169000800F08D1DFF878A2BAFBF7FA0AFB0CFA40
:1016A000BAFBF8F607E0DFF86CA2BAFBF7FA0AFB20
:1016B0000CFABAFBF8F6B1F806A0BAF5007F0ED125
:1016C0004FEA162A0AEB8A0A4FEA4A0AD1F808B00A
:1016D000BAFBFBFA0AF1050A1FFA8AF20FE04FEA99
:1016E000491AB6FBFAFA0AEB8A0A4FEA4A0AD1F813
:1016F00008B0BAFBFBFA0AF1050A1FFA8AF24FF0AA
:101700000A0AB2FBFAF202F00104A2EB040ACAF3DD
:101710004F034FF6FF7A0AEA0424022B01DBFF2B6A
:1017200001DD02230024B1F806A04AEA040A4AEACD
:10173000030AA0F820A0B1F804A0B1F80CB04AEA5E
:101740000B0AB1F802B04AEA0B0AB1F800B04AEA53
:101750000B0A4AF4006A4AEA05058583BDE8F08F62
:101760000021018041808180C1800181418181818E
:10177000C181072101827047002101804180818061
:10178000C1800221816000218181704721B10288DE
:1017900042F04002028004E002884FF6BF731A4014
:1017A0000280704721B1828B42F48062828304E020
:1017B000828B4FF6FF331A408283704702884FF2C4
:1017C000FF731A40028002880A4302807047B1F515
:1017D000804F04D1028842F48042028004E00288F3
:1017E0004BF6FF731A40028070474FF6FF6291423A
:1017F00004D0028842F48072028004E002884FF62E
:10180000FF631A400280704721B1828842F00402CF
:10181000828004E082884FF6FB731A408280704712
:1018200021B1828842F01002828004E082884FF663
:10183000EF731A408280704730B500220023848BFA
:101840004FF240052C40848302240484828B0C8850
:10185000B4F5007F01D00C8814B94FF4807308E010
:101860000C88B4F5407F03D00C88B4F5807F00D19C
:1018700000238C888D892C434D882C431C4344F4D1
:1018800000642243828330BD01468889704781818C
:10189000704721B1028842F40052028004E00288BD
:1018A0004DF6FF731A4002807047018841F4805161
:1018B0000180704702460020012901D0108B00E012
:1018C000908A70470146088A70471AB183880B4393
:1018D000838002E083888B438380704730B5002487
:1018E00000230C110125A540ABB2AAB185881D4388
:1018F000858014E00030014000380040003C00408A
:1019000000340140005001400054014008380240BA
:1019100000127A000024F40085889D43858030BD44
:101920000246002013890B400BB1012000E000208B
:101930007047CA4302817047F0B502460020002478
:101940000023002501F00F070126BE40B4B20B11A1
:1019500001269E40B3B2968806EA03051689264002
:1019600016B10DB1012000E00020F0BD10B500223D
:1019700001F00F040123A3409AB2D343038110BDA9
:1019800010B501218803FFF716FD00214FF48040B8
:10199000FFF711FD10BD1C49086070471B49086224
:1019A000704730B500228B071C0F0F2303FA04F297
:1019B000154B08338C1053F824309343124C0834E1
:1019C0008D1044F8253023468C1053F824308C07B2
:1019D000240F00FA04F423430B4C08348D1044F810
:1019E000253030BD0949DC3108607047084908607E
:1019F0007047002004492031096801F4807109B161
:101A0000012000E00020704700380140000027421C
:101A10000004274210B50446FE48844208D1012143
:101A20000846FFF7C8FC00210120FFF7C4FC9DE039
:101A3000B4F1804F08D101210846FFF7ABFC00212B
:101A40000120FFF7A7FC91E0F348844208D101216F
:101A50000220FFF79FFC00210220FFF79BFC85E09E
:101A6000EE48844208D101210420FFF793FC0021B5
:101A70000420FFF78FFC79E0E948844208D1012176
:101A80000820FFF787FC00210820FFF783FC6DE0AA
:101A9000E448844208D101211020FFF77BFC00219B
:101AA0001020FFF777FC61E0DF48844208D1012174
:101AB0002020FFF76FFC00212020FFF76BFC55E092
:101AC000DA48844208D101210220FFF774FC00218A
:101AD0000220FFF770FC49E0D548844209D101217A
:101AE0000804FFF768FC00214FF48030FFF763FC27
:101AF0003CE0D048844209D101214804FFF75BFC57
:101B000000214FF40030FFF756FC2FE0CA48844212
:101B100009D101218804FFF74EFC00214FF48020F9
:101B2000FFF749FC22E0C548844208D1012140204A
:101B3000FFF730FC00214020FFF72CFC16E0C048E6
:101B4000844208D101218020FFF724FC002180205D
:101B5000FFF720FC0AE0BB48844207D10121801531
:101B6000FFF718FC0021A015FFF714FC10BD0022A0
:101B70000288A84B98420ED0AC4B98420BD0B0F1E3
:101B8000804F08D0A44B984205D0A44B984202D075
:101B9000A34B984204D14FF68F731A404B881A43D7
:101BA000A04B984207D0A04B984204D04FF6FF4379
:101BB0001A400B891A4302804B68C3620B88038565
:101BC000944B984202D0994B984201D18B7A03866C
:101BD0000123838270474FF0FF3141600021018073
:101BE00001814180817270470185828270470A4677
:101BF000002101884FF68F7319401143018070470F
:101C000041627047C16270470146486A70470146A9
:101C1000088D704721B1028842F00202028004E080
:101C200002884FF6FD731A400280704721B1028886
:101C300042F00402028004E002884FF6FB731A406F
:101C40000280704721B1028842F08002028004E0E5
:101C500002884FF67F731A400280704702884FF661
:101C6000F7731A40028002880A4302807047028894
:101C70004FF6FF431A40028002880A4302807047F1
:101C800021B1028842F00102028004E002884FF68E
:101C9000FE731A400280704770B5002400220023B2
:101CA000058C4FF6FE7635400584028C8388048BC4
:101CB0004FF68F752C40B51E2C400D882C43751E99
:101CC0002A408D892A434D882A43524DA84202D08A
:101CD000564DA84213D14FF6F7752A40CD892A43B5
:101CE0004FF6FB752A408D882A434FF6FF652B403F
:101CF0004FF6FF552B400D8A2B434D8A2B43838093
:101D000004838D684563028470BD70B50024002291
:101D10000023058C4FF6EF7635400584028C8388CE
:101D2000048B48F6FF752C404FF6FF452C400D887C
:101D30004FF6FF7606EA05252C434FF6DF752A405D
:101D40008D8906EA05152A434D8806EA05152A43BA
:101D5000304DA84202D0354DA8421DD14FF67F75B7
:101D60002A40CD894FF6FF7606EA05152A434FF63D
:101D7000BF752A408D8806EA05152A434FF6FF35C0
:101D80002B404FF2FF752B400D8A06EA85052B4349
:101D90004D8A06EA85052B43838004838D6885631D
:101DA000028470BD70B5002400220023058C4FF61C
:101DB000FF6635400584028C8388848B4FF68F75CF
:101DC0002C404FF6FC752C400D882C434FF6FF55E8
:101DD0002A408D894FF6FF7606EA05252A434D886D
:101DE00006EA05252A430B4DA84202D00F4DA84212
:101DF00038D14FF2FF752A40CD894FF6FF7606EABB
:101E000005252A434FF6FF352A408D8806EA052529
:101E10002A4319E00000014000040040000800408F
:101E2000000C00400010004000140040000401407D
:101E300000400140004401400048014000180040BB
:101E4000001C0040002000404EF6FF752B404DF670
:101E5000FF752B400D8A06EA05152B434D8A06EACD
:101E600005152B43838084838D68C563028470BD10
:101E700070B5002200230024058C4EF6FF76354015
:101E80000584038C8488828B48F6FF752A404FF6C0
:101E9000FF452A400D884FF6FF7606EA05252A43BE
:101EA0004DF6FF752B408D8906EA05352B434D888D
:101EB00006EA05352B43FE4DA84202D0FD4DA8424F
:101EC00008D14BF6FF752C400D8A4FF6FF7606EAD7
:101ED00085152C43848082838D680564038470BDDE
:101EE000002101804180818081608181C1810182E6
:101EF0004182704770B50346002000241846183010
:101F000001258D40ACB21D8CA5431D8409B1082963
:101F10000AD100EB610005684FF68F763540056009
:101F20000568154305600FE00D1FC5F34E052844F5
:101F3000056848F6FF763540056005684FF6FF7680
:101F400006EA02263543056070BD41637047816330
:101F50007047C1637047016470470A460021018BD6
:101F60004FF68F7319401143018370470A460021D1
:101F7000018B48F6FF7319404FF6FF7303EA022303
:101F80001943018370470A460021818B4FF68F73F6
:101F900019401143818370470A460021818B48F61E
:101FA000FF7319404FF6FF7303EA0223194381833D
:101FB00070470A460021018B4FF6F7731940114311
:101FC000018370470A460021018B4FF2FF731940CD
:101FD0004FF6FF7303EA02231943018370470A4651
:101FE0000021818B4FF6F7731940114381837047AD
:101FF0000A460021818B4FF2FF7319404FF6FF73A1
:1020000003EA02231943818370470A460021018BAA
:102010004FF6FB7319401143018370470A460021B4
:10202000018B4FF6FF3319404FF6FF7303EA02238B
:102030001943018370470A460021818B4FF6FB73D9
:1020400019401143818370470A460021818B4FF666
:10205000FF3319404FF6FF7303EA022319438183CC
:1020600070470A460021018B4FF67F7319401143D8
:10207000018370470A460021018BC1F30E014FF620
:10208000FF7303EA02231943018370470A460021C4
:10209000818B4FF67F7319401143818370470A4645
:1020A0000021818BC1F30E014FF6FF7303EA022377
:1020B0001943818370470A460021018C4FF6FD7356
:1020C00019401143018470470A460021018C4FF6E4
:1020D000F77319401143018470470A460021018CAF
:1020E0004FF6DF7319404FF6FF7303EA02131943EB
:1020F000018470470A460021018C4FF67F73194016
:102100004FF6FF7303EA02131943018470470A462E
:102110000021018C4FF6FF5319404FF6FF7303EA7D
:1021200002231943018470470A460021018C4FF2B3
:10213000FF7319404FF6FF7303EA0223194301842A
:1021400070470A460021018C4DF6FF7319404FF687
:10215000FF7303EA023319430184704730B500234B
:1021600001248C40A3B2048C9C430484048C02FAA6
:1021700001F5ADB22C43048430BD30B500230424F6
:102180008C40A3B2048C9C430484048C02FA01F5B5
:10219000ADB22C43048430BD828B4FF2FF331A4022
:1021A0008283828B4FF6FF7303EA01231A438283F3
:1021B0007047F0B50C461546002100220026078C1A
:1021C0004EF6FF7C07EA0C070784818B028C4FF6E2
:1021D000FF7707EA043640F6FF4739404FF6FF77AE
:1021E00007EA052739434FF6FF7707EA03373943F4
:1021F00045F6FF773A4046F480573A43818302849C
:10220000F0BD828B4FF6F3731A408283828B0A43B0
:1022100082837047F0B50C46154600210022002647
:10222000078C4FF6FF6C07EA0C070784818B028C42
:102230004FF6FF7707EA04264FF60C7739404FF642
:10224000FF7707EA03172F4339434FF2FF573A400E
:1022500046F480773A4381830284F0BD028B4FF2CB
:10226000FF331A400283028B4FF6FF7303EA012308
:102270001A4302837047F0B50C4615460021002230
:102280000026078C4FF6EF7C07EA0C070784018BCA
:10229000028C4FF6FF7707EA041640F6FF473940F5
:1022A0004FF6FF7707EA033739434FF6FF7703E02E
:1022B000000001400004014007EA052739434FF6BA
:1022C0005F773A4046F010073A4301830284F0BD3D
:1022D000028B4FF6F3731A400283028B0A43028388
:1022E0007047F0B50C46154600210022068C4FF6CB
:1022F000FE773E400684018B028C4FF60C7631400F
:102300007E1C06EA03162E4331434FF6F576324023
:1023100044F00106324301830284F0BD70B50546E6
:102320000C46208850B92389A28861882846FFF787
:10233000D8FFE1882846FFF7CBFF25E02088042856
:102340000AD12389A28861882846FFF794FFE18893
:102350002846FFF783FF17E0208808280AD1238941
:10236000A28861882846FFF755FFE1882846FFF7D5
:1023700048FF09E02389A28861882846FFF719FFF2
:10238000E1882846FFF708FF70BD002101804180E9
:10239000012181800021C180018170472DE9F04138
:1023A00005460C4600260127608808B9022600E091
:1023B0000026A088012801D1022700E001272088FB
:1023C000A0B92389A28861882846FFF78AFFE1889F
:1023D0002846FFF77DFF23893A4631462846FFF716
:1023E0004AFFE1882846FFF739FF13E02389A288D6
:1023F00061882846FFF73FFFE1882846FFF72EFF58
:1024000023893A4631462846FFF76BFFE188284684
:10241000FFF75EFFBDE8F0810146486B704701465B
:10242000886B70470146C86B70470146086C70475F
:102430000A884B881A438B881A43CB881A430B8926
:102440001A434B891A438B891A43A0F844207047DA
:102450000021018041808180C18001814181818191
:10246000704731B1B0F8442042F40042A0F8442053
:1024700005E0B0F84420C2F30E02A0F844207047F3
:1024800021B1828842F00402828004E082884FF603
:10249000FB731A408280704721B1828842F00102AA
:1024A000828004E082884FF6FE731A408280704773
:1024B0001AB183890B43838102E083898B43838133
:1024C00070478182704702460020138A0B400BB18F
:1024D000012000E000207047CA430282704730B5F7
:1024E0000246002000230024158A05EA010395898D
:1024F00005EA010413B10CB1012000E0002030BD59
:10250000CA430282704741EA0203A0F8483070478C
:102510001AB183890B43838102E083898B438381D2
:10252000704721B1828842F00802828004E08288EC
:102530004FF6F7731A408280704701894FF6F872A0
:102540001140018170470A46002101894FF68F73BF
:10255000194011430181704730B504460D462946A4
:102560002046FFF7F0FF208940F00700208130BDB2
:102570002DE9F04104460D4616461F46602D06D152
:102580003B46012231462046FFF775FE05E03B46FB
:10259000012231462046FFF7A4FE29462046FFF7D8
:1025A000D2FF208940F007002081BDE8F08130B5DE
:1025B0000C4600210189C9B24FF6FF7505EA0325D3
:1025C000154325432943018130BD2DE9F0410546DE
:1025D0000E4617469846002443463A46314628465A
:1025E000FFF7E5FF2C894FF6F870044044F007042C
:1025F0004FF68F70044044F070042C81BDE8F081E8
:10260000F0B504460D4616461F463B46324629465F
:102610002046FFF7CCFF208940F480402081F0BDA8
:1026200082884FF68F731A40828082880A438280A4
:10263000704702894FF6F8731A40028102890A43F3
:102640000281704702894FF67F731A400281028926
:102650000A4302817047F0B50C4615461E4600211C
:10266000002200230189028B038C4FF6F877394052
:1026700021434FF6FC473A4040F201173A434FF6E8
:10268000DD773B404FF6FF7707EA06172F433B43C2
:10269000018102830384F0BD21B1828842F080026F
:1026A000828004E082884FF67F731A4082807047F0
:1026B000A0F850107047000010B50446FA48844254
:1026C00008D101211020FEF776FE00211020FEF730
:1026D00072FE57E0F548844209D101214804FEF713
:1026E00059FE00214FF40030FEF754FE4AE0F04856
:1026F000844209D101218804FEF74CFE00214FF4E9
:102700008020FEF747FE3DE0EA48844209D10121DE
:10271000C804FEF73FFE00214FF40020FEF73AFE0A
:1027200030E0E548844209D101210805FEF732FE78
:1027300000214FF48010FEF72DFE23E0DF48844295
:1027400008D101212020FEF736FE00212020FEF7CF
:1027500032FE17E0DA48844209D101218807FEF7EA
:1027600019FE00214FF08040FEF714FE0AE0D54824
:10277000844207D101214005FEF70CFE00216005CF
:10278000FEF708FE10BD2DE9FF4705460E46002462
:10279000A14600BFA046B08900B100BF2C8A24F436
:1027A0004054F08804432C82AC8941F20C6084438D
:1027B000B08831890843718908430443AC81AC8AED
:1027C00024F44074B0890443AC826846FEF773FC7D
:1027D000B548854202D0B948854202D1DDF80C9057
:1027E00001E0DDF80890A88900F4004040B109EB51
:1027F000C90000EB091031684900B0FBF1F707E0B0
:1028000009EBC90000EB091031688900B0FBF1F752
:102810006420B7FBF0F004012009642101FB10786B
:10282000A88900F4004040B1322000EBC800B0FBA2
:10283000F1F000F00700044308E0322000EB08103C
:102840006421B0FBF1F000F00F0004432C81BDE8DF
:10285000FF874FF41651016000218180C180018102
:102860000C21418100218181704710B50246002072
:10287000108A20F470600B884C8823438C88234393
:10288000CC8823431843108210BD00210180418071
:102890008180C180704721B1828942F400528281D7
:1028A00004E082894DF6FF731A4082817047028BE3
:1028B00002F47F420283028B0A430283704721B1F4
:1028C000828942F40042828103E08289C2F30E02CF
:1028D0008281704721B1828A42F40062828204E0E0
:1028E000828A4FF2FF731A4082827047C1F3080256
:1028F0008280704701468888C0F308007047028ACA
:102900004FF6F0731A400282028A0A43028270472D
:1029100021B1828942F00202828104E082894FF66D
:10292000FD731A408281704782894FF2FF731A400B
:10293000828182890A4382817047028A4FF6DF735F
:102940001A400282028A0A430282704721B1028A37
:1029500042F48042028204E0028A4BF6FF731A407E
:1029600002827047818941F001018181704721B164
:10297000828A42F00802828204E0828A4FF6F7736C
:102980001A4082827047028BD2B20283028B42EAE3
:1029900001220283704721B1828A42F020028282A2
:1029A00004E0828A4FF6DF731A408282704721B1B9
:1029B000828A42F01002828204E0828A4FF6EF732C
:1029C0001A4082827047828A4FF6FB731A408282D5
:1029D000828A0A438282704721B1828A42F00202CF
:1029E000828204E0828A4FF6FD731A408282704729
:1029F0001AB1838A0B43838202E0838A8B438382EA
:102A00007047F0B50346002400260025002040F65C
:102A10006A17B94200D100BF1846C1F3421401F051
:102A20001F06012707FA06F5012C01D10C3004E03E
:102A3000022C01D1103000E014301AB107682F4386
:102A4000076002E00768AF430760F0BD0246002060
:102A5000B1F5007F00D100BF13880B400BB10120FE
:102A600000E00020704701F40072B2F5007F00D151
:102A700000BFCA430280704770B50246002400239D
:102A80000025002040F66A16B14200D100BFC1F314
:102A9000421501F01F03012606FA03F3012D13D19D
:102AA0009689334017E000000010014000440040C8
:102AB00000480040004C004000500040001401401D
:102AC00000780040007C0040022D02D1168A33407D
:102AD00001E0968A33400C12012606FA04F41688A7
:102AE000344013B10CB1012000E0002070BD10B5DE
:102AF0000022002340F66A14A14200D100BF0A124E
:102B000001249440A3B2DC43048010BD10B50446F8
:102B10006FF00400FDF7A4FDE11704EB5171C1F360
:102B2000C701394A11701046007800EB4001C1EB33
:102B3000C0104FF6FF7101EAC0003449088010BD93
:102B40000146314A12784A434FF0E0235A6100228D
:102B50009A611A46126942F001021A6100BF4FF0F1
:102B6000E022106900F001021AB100F48032002A5C
:102B7000F5D04FF0E022126922F001024FF0E0237D
:102B80001A6100229A6170470146204A12884A431E
:102B90004FF0E0235A6100229A611A46126942F00E
:102BA00001021A6100BF4FF0E022106900F001023B
:102BB0001AB100F48032002AF5D04FF0E0221269F9
:102BC00022F001024FF0E0231A6100229A6170475F
:102BD00070B504464FF4077094FBF0F0C6B24FF4A2
:102BE000077094FBF0F100FB114085B205E04FF453
:102BF0000770FFF7C9FF701EC6B2002EF7D115B1DE
:102C00002846FFF7C1FF70BD4000002042000020B1
:102C10001CB501210220FEF71FFB4FF4006000905D
:102C200001208DF8040000208DF8060003208DF8A7
:102C3000050002208DF8070069460248FEF76EF88D
:102C40001CBD0000000402401CB501211020FEF74D
:102C500003FB00208DF8040003208DF805000120FF
:102C60008DF807000720009069462048FEF756F8C7
:102C70001CBD10B5044614B101201D4908701C4844
:102C8000007808B31B48006838B11A48001D006876
:102C900018B1184808300068B0B90A20FFF798FF4B
:102CA0000020134908701348006808B9012010BDBE
:102CB0001048001D006808B90220F8E70D480830E8
:102CC000006888B90320F2E70A48006801280BD1A0
:102CD0000848001D0068012806D106480830006831
:102CE000012801D1024908700020E0E700100240ED
:102CF000450000200002424270B504460E462EB147
:102D00004FF40051F748FEF785F804E04FF4005106
:102D1000F448FEF781F84FF48051F248FEF77CF852
:102D200000251BE04FF40041EE48FEF775F804F073
:102D3000800028B14FF48041EA48FEF76BF804E0C8
:102D40004FF48041E748FEF767F84FF40041E5484B
:102D5000FEF760F86006040E681CC5B2082DE1DBC2
:102D60004FF48051DF48FEF755F84FF40051DD482D
:102D7000FEF750F870BD10B504461CB90021A6201E
:102D8000FFF7BAFF012C03D10021A720FFF7B4FF02
:102D900010BD10B504463CB90021C820FFF7ACFFB8
:102DA0000021A120FFF7A8FF012C07D10021C0209E
:102DB000FFF7A2FF0021A020FFF79EFF10BD10B576
:102DC00000218D20FFF798FF00211420FFF794FFCA
:102DD0000021AF20FFF790FF10BD10B500218D201E
:102DE000FFF78AFF00211020FFF786FF0021AE20A9
:102DF000FFF782FF10BD70B500241CE004F1B001A4
:102E0000C8B20021FFF778FF00210846FFF774FFE2
:102E100000211020FFF770FF002508E0B24901EB08
:102E2000C501085D0121FFF767FF681CC5B2802D51
:102E3000F4DB601CC4B2082CE0DB70BD70B500246C
:102E40000CE0002506E00020A74901EBC50108556C
:102E5000681CC5B2802DF6DB601CC4B2082CF0DB08
:102E6000FFF7C9FF70BDF0B514460B46CF1701EB55
:102E70005777C7F3C702CF1701EB5777FF10A1EBC6
:102E8000C707FEB20123B340DDB24CB1964B03EB52
:102E9000C0039B5C2B43944F07EBC007BB541AE065
:102EA000914B03EBC0039B5CDB438F4F07EBC007E9
:102EB000BB548D4B03EBC0039B5C2B438A4F07EB4A
:102EC000C007BB54884B03EBC0039B5CDB43864FBE
:102ED00007EBC007BB54F0BD2DE9FF4F84B081461E
:102EE0008A460020029083460698A0EB09040798C2
:102EF000A0EB0A06CDF80490CDF800A0002C01DD6F
:102F0000012705E00CB9002702E04FF0FF376442CB
:102F1000002E02DD4FF0010806E016B94FF0000860
:102F200002E04FF0FF386642B44201DD254600E082
:102F30003546002003901EE0009AD1B2019AD0B22B
:102F4000119AFFF790FF029820440290B344029830
:102F5000A84205DD0298401B029001983844019078
:102F6000AB4504DDABEB050B0098404400900398A3
:102F7000401C80B20390691C03988842DCDB08B0D7
:102F8000BDE8F08F2DE9F04306460F469046002538
:102F9000444643E03A1BD1B27219D0B20122FFF786
:102FA00062FF3A1BD1B2721BD0B20122FFF75BFF66
:102FB0003A19D1B2721BD0B20122FFF754FF3A196D
:102FC000D1B27219D0B20122FFF74DFF7A19D1B2F6
:102FD0003219D0B20122FFF746FF7A1BD1B2321963
:102FE000D0B20122FFF73FFF7A1BD1B2321BD0B221
:102FF0000122FFF738FF7A19D1B2321BD0B2012279
:10300000FFF731FF6D1C05FB05F004FB040008FB16
:103010001809B9F1000F01DD641E6D1E60006043E8
:1030200008FB08F18842B5DABDE8F0832DE9FE4FD0
:103030000746884692461C460197CDF80080082C2A
:1030400002D14FF006091FE02046E31704EB53734B
:10305000DB1021464FEAE47C04EB5C7C4FEAEC0C8D
:10306000A4EBCC0CBCF1000F02D04FF0010C01E03E
:103070004FF0000C6344224604EBD27C4FEA6C0C08
:1030800003FB0CF303F0FF09AAF12000C6B20025F0
:103090006BE0082C07D106EB4600144901EB400019
:1030A00010F805B02AE00C2C07D106EB46001049B9
:1030B00001EB800010F805B020E0102C05D10D4880
:1030C00000EB061010F805B018E0182C07D106EB3D
:1030D000C600094901EB800010F805B00EE0BDE81C
:1030E000FE8F000000040240600000202460000801
:1030F0004C620008C0660008B06C00080020029016
:103100001CE00BF0010028B1414638460C9AFFF74D
:10311000AAFE09E00C9808B9012000E00020024650
:1031200041463846FFF79FFE4FEA6B0B08F101005E
:1031300000F0FF080298401CC0B2029002980828D4
:10314000DFDB781CC7B2082C0BD004EBD4714A101B
:103150000199791A8A4204D1019F00980830C0B2BF
:103160000090DDF80080681CC5B24D4591DB00BFC2
:10317000B5E72DE9F84106460F4614461D46DDF831
:103180001C8013E0CDF8008022782B46394630466B
:10319000FFF74CFF082D02D1B01DC6B205E028464E
:1031A00005EBD07106EB6101CEB2641C20782028BB
:1031B00002DB20787E28E5DDBDE8F88110B5024607
:1031C000012000E050430B1EA1F10104E1B2F9D14E
:1031D00010BD2DE9FF4F82B0064691461F46DDE93E
:1031E0000F4A4FF0000B082C01D14FF0020B0025C5
:1031F00030E0781B401EC1B20A20FFF7DFFFB9FBA9
:10320000F0F00A21B0FBF1F201FB1208B8F1000F57
:103210000ED104EBD4710BEB610101FB0561C8B267
:1032200023463022CDE900A40399FFF7FFFE0FE00B
:1032300004EBD4710BEB610101FB0561C8B208F12D
:103240003001CAB22346CDE900A40399FFF7EEFE90
:10325000681CC5B2BD42CCDB06B0BDE8F08F2DE9DD
:10326000FC430546884616469946DDE90974002E5A
:1032700010DA3B46F9A2414628460094FFF779FF51
:10328000691DC8B24B4672424146CDE90074FFF752
:10329000A0FF0FE03B46F2A2414628460094FFF70C
:1032A00068FF691DC8B24B4632464146CDE90074FD
:1032B000FFF78FFFBDE8FC832DE9FF4F2DED020BDB
:1032C00084B0814690461F46DDE913454FF0000A61
:1032D00000200390002609F1070000F0FF0A2046B5
:1032E00004EBD071491001FB08A1491CCEB204EBDC
:1032F000D07106EB6101C9B20391B5EEC00AF1EEDF
:1033000010FA0FD22346D5A2009548460799FFF739
:1033100030FFF1EE400A9FEDD31A60EE810AB0EE65
:10332000600A0CE02346CEA2009548460799FFF7B5
:1033300020FFDFEDCC0A60EE200AB0EE600ADFED80
:10334000C90A80EE201AFCEEC10A10EE90BA43467C
:103350005A46CDE9004550460799FFF73AFF234604
:10336000C1A2009530460799FFF703FF012F04D053
:10337000022F17D0032F14D161E0FDEEC00A10EE2A
:10338000900A642190FBF1F00A2190FBF1F201FB1D
:10339000120B3B465A46CDE9004507990398FFF7C3
:1033A00018FFD5E0FDEEC00A10EE900A0A2190FB4E
:1033B000F1F0642190FBF1F201FB12000A2829DAF6
:1033C000A34604EBDB7106EB6101C8B201230022C6
:1033D000CDE900450799FFF7FCFEFDEEC00A10EEAF
:1033E000900A0A2190FBF1F0642190FBF1F201FBBD
:1033F000120004EBDB714910022202FB0161CDE9EE
:1034000000450290C8B2791ECBB2029A0799FFF725
:10341000E0FE13E0FDEEC00A10EE900A0A2190FBD8
:10342000F1F0642190FBF1F201FB120B3B465A468E
:10343000CDE9004507990398FFF7CBFE88E0FDEE44
:10344000C00A10EE900A4FF47A7190FBF1F201FB82
:1034500012000A2835DAA34604EBDB7106EB6101A2
:10346000C8B201230022CDE900450799FFF7B1FE5C
:1034700004EBDB714910022202FB0161C8B2012397
:103480000022CDE900450799FFF7A3FEFDEEC00A33
:1034900010EE900A4FF47A7190FBF1F201FB1200EA
:1034A00004EBDB714910032202FB0161CDE9004509
:1034B0000290C8B2B91ECBB2029A0799FFF789FEF3
:1034C00045E0FDEEC00A10EE900A4FF47A7190FBD1
:1034D000F1F201FB1200642827DAA34604EBDB714A
:1034E00006EB6101C8B201230022CDE9004507992E
:1034F000FFF76FFEFDEEC00A10EE900A4FF47A71EE
:1035000090FBF1F201FB120BCDE9004504EBD47105
:103510004910022202FB0161C8B2791ECBB25A46A1
:1035200002940799FFF755FE11E0FDEEC00A10EE78
:10353000900A4FF47A7190FBF1F201FB120B3B46BB
:103540005A46CDE9004507990398FFF742FE00BFB0
:1035500000BF0AB0BDE8F08F2DE9FC4F0746884652
:1035600016461C46BB46CDF804802046E21704EB05
:103570005272D2102146E31704EB5373DB10A4EB15
:10358000C3030BB1012300E000231A44624392B24B
:103590000092002555E0102C05D1344800EB461070
:1035A00010F805A01BE0182C07D106EBC600304927
:1035B00001EBC00010F805A011E0202C05D12D482A
:1035C00000EBC61010F805A009E0402C05D12A48F0
:1035D00000EB462010F805A001E0BDE8FC8F4FF09D
:1035E00000091CE00AF0010028B1414638460B9A58
:1035F000FFF739FC09E00B9808B9012000E0002032
:10360000024641463846FFF72EFC4FEA6A0A08F1A7
:10361000010000F0FF0809F1010000F0FF09B9F115
:10362000080FDFDB781CC7B2A7EB0B00A04204D168
:103630005F4601980830C0B20190DDF80480681C34
:1036400085B200988542A6DB00BFC6E708B5804674
:1036500089469246002600275CE000002D0000000D
:103660002000000000007A442E0000000C7A0008C0
:103670000C7C0008547C0008D47C00084FB910234F
:10368000324618218020CDF800A0FFF765FF701C9E
:10369000C6B2464522D14FF0000B1AE0012410E0DB
:1036A00000250AE0AC4800EBC400415D601EAA4A58
:1036B00002EBC0004155681CC5B2082DF2DB601C4E
:1036C000C4B2902CECDBFFF796FB0BF1010000F08D
:1036D000FF0B4FEA09105845E0DC0026781CC7B202
:1036E000102F00D10027012410E000250AE09A489D
:1036F00000EBC400415D601E974A02EBC0004155DB
:10370000681CC5B2082DF2DB601CC4B2902CECDB47
:10371000FFF771FBB2E72DE9FF4F05460E4617464E
:103720001C46DDF838904FF0000A0095B34620465D
:10373000E21704EB5272D2102146E31704EB5373E5
:10374000DB10A4EBC3030BB1012300E000231A44F8
:10375000D4B24FF0000845E0002003903BE00D9804
:1037600010F80A0002900AF101001FFA80FA002006
:1037700001901DE0029800F0010028B14A46314650
:103780002846FFF770FB0AE0B9F1000F01D10120D4
:1037900000E00020024631462846FFF764FB02980D
:1037A00040100290701CC6B20198401CC0B201903B
:1037B00001980828DEDB681CC5B20098281AB842B8
:1037C00004D1009D0BF1080000F0FF0B5E4603984A
:1037D000401CC0B203900398B842C0DB08F101005E
:1037E00000F0FF08A045B7DBBDE8FF8F1CB5012145
:1037F0000220FDF731FD01212020FDF72DFD4FF2C4
:103800000400009001208DF8040003208DF80500CD
:1038100000208DF8060001208DF8070069464F480A
:10382000FDF77CFA4FF204014C48FDF7F3FA402013
:10383000009001208DF8040003208DF80500002081
:103840008DF8060001208DF8070069464448FDF711
:1038500065FA40214248FDF7DDFA40214048FDF776
:10386000DBFAC820FFF7B4F940213D48FDF7D2FA52
:103870000021AE20FFF740FA00210846FFF73CFA8E
:1038800000211020FFF738FA00214020FFF734FA1A
:1038900000218120FFF730FA0021CF20FFF72CFA1A
:1038A0000021A120FFF728FA0021C820FFF724FA01
:1038B0000021A620FFF720FA0021A820FFF71CFA1C
:1038C00000213F20FFF718FA0021D320FFF714FA58
:1038D00000210846FFF710FA0021D520FFF70CFA67
:1038E00000218020FFF708FA0021D920FFF704FA11
:1038F0000021F120FFF700FA0021DA20FFF7FCF9A0
:1039000000211220FFF7F8F90021DB20FFF7F4F97E
:1039100000214020FFF7F0F900212020FFF7ECF90B
:1039200000210220FFF7E8F900218D20FFF7E4F9DC
:1039300000211420FFF7E0F90021A420FFF7DCF9B3
:103940000021A620FFF7D8F9FFF778FA0021AF2071
:10395000FFF7D2F91CBD0000600000200004024007
:10396000001402401CB501212020FDF775FC4FF426
:10397000C060009001208DF8040000208DF8060042
:1039800003208DF8050001208DF8070069460448E2
:10399000FDF7C4F94FF4C0610148FDF73BFA1CBDC7
:1039A0000014024070477FB505460C4601210846C9
:1039B000FDF79BFC0195ADF800400020ADF8080034
:1039C000ADF8020069465648FEF7D1F801221146CB
:1039D0005348FEF76DFD1B208DF80C0003208DF879
:1039E0000D0001208DF80E008DF80F0003A8FCF7E4
:1039F000EAFD01214A48FEF743F97FBD10B50024D6
:103A00004848006848490978884213D0454800680A
:103A100038B9444808300068012801D1012400E089
:103A2000022440480068404908704048D0F82C0201
:103A30003F4908703B48001D006870B90A20FFF735
:103A4000C7F83848001D006838B93A48007801289E
:103A500003D10324002037490870204610BD00B56B
:103A6000012805D134490978491C334A11700BE00B
:103A7000022805D130490978491E2F4A117003E008
:103A8000032801D1FFF78EFF00BD10B501212448A6
:103A9000FEF725FD40B1FFF7B1FF0446FFF7DFFF5A
:103AA00001211F48FEF72CFD10BD1CB5012110207F
:103AB000FDF72CFC01208DF8040000208DF8060095
:103AC00003208DF8050002208DF807004FF42060D8
:103AD000009069461948FDF721F900208DF804008F
:103AE00003208DF8050001208DF80700800200906A
:103AF00069461248FDF712F94FF420610F48FDF7AF
:103B000089F908480068084908700848D0F82C026C
:103B10000749087042F2CF010920FFF744FF1CBD9E
:103B200000000140240242424600002000004242C0
:103B300047000020480000204900002000100240FB
:103B400000B58DB001210846FDF786FB0121080272
:103B5000FDF7DCFB01200B9003208DF830000020E6
:103B60008DF833000BA97048FDF7D8F80121080241
:103B7000FDF721FC00214FF48070FDF71CFC0020B4
:103B800007900A9009904FF48030089007A8FCF73E
:103B9000BFFD002001908DF808008DF8090003900A
:103BA000059001208DF8180001A96048FCF781FDFF
:103BB00001215E48FCF7C3FD0DB000BD10B5044601
:103BC0000723012221465948FCF7F9FD5748FCF725
:103BD00052FE00BF02215548FCF76EFF0028F9D0C5
:103BE0005248FCF784FE10BD2DE9F04107460C4613
:103BF0000025002608E03846FFF7E0FF05440520D1
:103C0000FEF7E6FF701CC6B2A642F4DBB5FBF4F08B
:103C100080B2BDE8F08110B514210020FFF7E4FF69
:103C2000642100FB01F4E01704EB1050C0F30730EF
:103C300010BD30B52DED068B83B00546012D59D151
:103C400000249FED3B0AB0EE408A14210020FFF7CC
:103C5000CBFF044600EE104AB8EEC00A10EE100A80
:103C600001F0CAFA41EC1A0B9FED320B53EC102B0A
:103C700001F050FA41EC190B01F0D1FA08EE100AEC
:103C8000BDEEC80A10EE104A00EE104AB8EEC00AA7
:103C900038EE400AB0EE408A9FED280A28EE000A6E
:103CA000B0EE408A0120082103462246CDE90010EB
:103CB00000215C20FFF78DFA012008232E2200212D
:103CC00000906220FFF7B2F9012008210223BCEE28
:103CD000C80A10EE102ACDE9001000216820FFF775
:103CE00078FA012008235622002100907820FFF75F
:103CF0009DF914E0FFF78FFF0446012008210223FD
:103D00002246CDE9001000216820FFF762FA012069
:103D100008232522002100907820FFF787F903B0BF
:103D2000BDEC068B30BD00000000024000200140C9
:103D3000000000006666666666664A3F00007A44D8
:103D400030B50B46002112E000245D5C858006E062
:103D5000651CADB22C46B5F5FA5F00DD04E00588C0
:103D600005F08005002DF3D000BF4C1CE1B291425C
:103D7000EADB30BD00B587B001210920FDF76CFA00
:103D800001211020FDF7C2FA01214804FDF7ADFA28
:103D900007220921FA48FDF74CF807220A21F848C2
:103DA000FDF747F84FF4C060059002208DF8180029
:103DB0008DF8190000208DF81A0001208DF81B00E5
:103DC00005A9EF48FCF7AAFF07220521ED48FDF7FA
:103DD00030F807220621EB48FDF72BF8602005900C
:103DE00005A9E848FCF79AFF4FF4E1300190002064
:103DF000ADF80800ADF80A00ADF80C00ADF8100001
:103E00000820ADF80E0001A9DF48FEF7BCFC01A9AF
:103E1000DE48FEF7B8FC0121DB48FEF73CFD01213E
:103E2000DA48FEF738FD07B000BD2DE9FF41064630
:103E3000884615461F460A9C00200090019002907B
:103E4000039001208DF80000FD208DF801008DF811
:103E5000028028128DF80300E8B28DF804008DF876
:103E60000570200E8DF80600200C8DF80700200A42
:103E70008DF80800E0B28DF8090000208DF80A00E6
:103E80008DF80B006B208DF80C002EB90D226946C1
:103E9000BE48FFF755FF04E00D226946BA48FFF718
:103EA0004FFFBDE8FF811CB50446B9A103C9CDE9A8
:103EB00000012CB905226946B448FFF741FF04E030
:103EC00005226946B048FFF73BFF1CBD2DE9F84FBE
:103ED00004460D4690469946DDE90AAB4B464246FC
:103EE00029462046CDF800A0FFF79FFF002628E0D6
:103EF0008DB9012C0FD101F05CF860B9002707E003
:103F00000120FFF7D0FF0220FEF762FE781CC7B247
:103F1000032FF5DB17E085B97CB901F043F860B9F0
:103F2000002707E00020FFF7BEFF0220FEF750FE4B
:103F3000781CC7B2032FF5DB05E00120FEF748FE31
:103F4000761C5E45D4D300BFBDE8F88FF0B52DEDEB
:103F5000028B83B004460D46B0EE408A9FED8E0A78
:103F600028EE000ABCEEC00A10EE107A9FED8B0A14
:103F700068EE000A00EE104AB8EE400A80EE801AA1
:103F8000BCEEC10A10EE106AB6F5FA7F01D24FF40A
:103F9000FA762B46224600210120CDE90076FFF774
:103FA00095FF03B0BDEC028BF0BDF0B52DED028B9B
:103FB00083B004460D46B0EE408A9FED770A28EEA6
:103FC000000ABCEEC00A10EE107A9FED740A68EE8B
:103FD000000A00EE104AB8EE400A80EE801ABCEEED
:103FE000C10A10EE106AB6F5FA7F01D24FF4FA76E4
:103FF0002B46224601210846CDE90076FFF766FFF1
:1040000003B0BDEC028BF0BDF0B52DED028B83B09B
:1040100004460D46B0EE408A9FED610A28EE000A84
:10402000BCEEC00A10EE107A9FED5E0A28EE000A80
:10403000DFED5D0A80EE201AF0EE418A9FED570A0F
:1040400068EE800A00EE104AB8EE400A80EE801A50
:10405000BCEEC10A10EE106A40F6B830864200D2BB
:1040600006462B46224600210846CDE90076FFF79A
:104070002DFF03B0BDEC028BF0BDF0B52DED028B32
:1040800083B004460D46B0EE408A9FED450A28EE07
:10409000000ABCEEC00A10EE107A9FED420A28EE2C
:1040A000000ADFED410A80EE201AF0EE418A9FED12
:1040B0003B0A68EE800A00EE104AB8EE400A80EE35
:1040C000801ABCEEC10A10EE106AB6F57A7F01D2F2
:1040D0004FF47A762B46224601210020CDE9007666
:1040E000FFF7F4FE03B0BDEC028BF0BD10B5B3EEEC
:1040F000040A0021C820FFF7C0FF6420FEF768FD16
:10410000B3EE040A00214FF49670FFF71FFF6420FE
:10411000FEF75EFD9FED250A0021C820FFF774FF22
:1041200010BD10B5B3EE040A0021C820FFF7A5FFAB
:104130006420FEF74DFDB2EE040A00214FF49670A4
:10414000FFF733FF6420FEF743FD9FED180A0021BF
:10415000C820FFF759FF10BD70472DE9F843002430
:10416000002500260027A04600F023FF10B31048CA
:1041700000237822194600900120FFF756FE1AE02E
:1041800000000240000C02400010014000440040CA
:1041900001FE98006B0000000000484500606A477F
:1041A000E538DE44000048430000B44300004842C4
:1041B0003F420F00012500F0F5FE48B147480023BB
:1041C0004FF49672194600901846FFF72EFE00E055
:1041D00001243FE0C5B900F0ECFEA8B9781CC7B2D5
:1041E0000F2F13DD4FF0000909E00120FFF75BFE00
:1041F0000220FEF7EDFC09F1010000F0FF09B9F122
:10420000030FF2DB012501E005B90027DCB900F05E
:10421000C9FEC0B908F1010000F0FF08B8F10F0FA6
:1042200014DD4FF0000909E00020FFF73CFE0220FA
:10423000FEF7CEFC09F1010000F0FF09B9F1030F10
:10424000F2DB012402E00CB94FF000080120FEF778
:10425000BFFC761C04B11DB944F620608642B9D378
:1042600044F62060864221D37DB94FF0000909E071
:104270000120FFF718FE0220FEF7AAFC09F1010059
:1042800000F0FF09B9F1030FF2DB7CB94FF0000930
:1042900009E00020FFF707FE0220FEF799FC09F174
:1042A000010000F0FF09B9F1030FF2DB4FF4967043
:1042B000FEF78EFC00200346642201210090084690
:1042C000FFF7B3FD00200346642201210090FFF7B1
:1042D000ACFDC820FEF77CFCBDE8F8833F420F0030
:1042E00000B58BB001211420FCF7B6FF012102209C
:1042F000FDF70CF84FF44040099001208DF828009C
:1043000000208DF82A0001208DF82B0003208DF865
:10431000290009A95648FCF701FD4FF440415448D3
:10432000FCF778FD4FF47070099002208DF828009A
:1043300000208DF82A008DF82B0003208DF829002D
:1043400009A94C48FCF7EAFC032206214948FCF77E
:1043500070FD032207214748FCF76BFD032208216B
:104360004448FCF766FD032209214248FCF761FD41
:10437000A720ADF8180040F2E73007900020ADF814
:104380001A00ADF8200006A93B48FDF7F0FB6020BD
:10439000ADF804000120ADF8060000200390ADF850
:1043A0001000ADF80800ADF81200ADF81400ADF83B
:1043B000160001A93048FDF76FFC01A92E48FDF752
:1043C000A4FC01A92C48FDF7EDFC01A92A48FDF742
:1043D0004FFD08212848FDF7ECFD08212648FDF790
:1043E000F1FD08212448FDF7FAFD08212248FDF7D8
:1043F000FFFD01212048FEF734F801211E48FDF79A
:104400003FFC0BB000BD70B504460D464FF4804133
:104410001748FCF701FD002C08DD00211648FDF7C8
:1044200096FD21461448FDF790FD07E061421248D1
:10443000FDF78DFD00211048FDF787FD4FF4004189
:104440000B48FCF7E9FC002D08DD29460A48FDF77A
:1044500080FD00210848FDF77EFD07E000210648A9
:10446000FDF777FD69420448FDF775FD70BD00005A
:1044700000100240000802400004014000B585B071
:104480000021DF48FDF782F90020ADF800004FF46D
:104490008270ADF802000020ADF80400ADF806000F
:1044A000ADF808004FF40070ADF80A003820ADF800
:1044B0000C000020ADF80E000720ADF81000694692
:1044C000CF48FDF769F80121CD48FDF75FF905B048
:1044D00000BD70B505460C460020CA490860284654
:1044E00000F0A8F90646204600F0A4F90120C649CC
:1044F000C1F89002304670BD2DE9F04107460C46E8
:1045000015460020BF490860384600F093F9804600
:10451000002605E014F8010B00F08CF9701CC6B2FF
:10452000AE42F7DB0120B74908604046BDE8F081A4
:1045300010B50020B349091F08600522B3492A209D
:10454000FFF7DAFF01212120FFF7C3FF012122201D
:10455000FFF7BFFF00212520FFF7BBFF20213120FF
:10456000FFF7B7FF0F212620FFF7B3FF0F21202011
:10457000FFF7AFFF06213D20FFF7ABFF01213C20F5
:10458000FFF7A7FF0120A049C1F88C0210BD2DE95B
:10459000F04107460D46164600209A490860384605
:1045A00000F048F98046002405E0FF2000F042F9C1
:1045B0002855601CC4B2B442F7DB01209149086061
:1045C0004046BDE8F0811CB591A103C9CDE90001C9
:1045D000102000F0A5F9052269463020FFF78CFF76
:1045E000052269461020FFF7D2FF002406E01DF8DF
:1045F0000400A52800D003E0601CC4B2052CF6DB43
:1046000000BF052C01D001201CBD0020FCE70EB529
:1046100001210846FCF720FE1820019001208DF8AA
:10462000080000208DF80A0003208DF80900012001
:104630008DF80B0001A97848FCF770FB4FF48070EF
:10464000019000208DF8080001208DF80B0001A9D1
:104650007148FCF763FB00F006F9FFF70FFF00203D
:104660006849091F086001206749C1F890020CE001
:104670000120082369A2002100900846FEF779FD79
:10468000FEF7B9FBC820FEF7A3FAFFF79CFF00284E
:10469000EED10120082363A2002100900846FEF716
:1046A00068FDFEF7A8FBFFF743FF0EBD70B504469B
:1046B000002054490860204600F0BCF8FF2000F0BC
:1046C000B9F8054601205049C1F89002284670BD4E
:1046D00070B50546102000F023F900204949091F54
:1046E000086020222946A020FFF706FF0120464946
:1046F000C1F88C0200BF4348703800680028FAD126
:104700000720FFF7D3FF044621462720FFF7E1FEED
:1047100004F0100028B1FF21E120FFF7DAFE10209D
:1047200070BD04F0200008B12020F9E7FF20F7E772
:1047300070B50446102000F0F3F80720FFF7B6FF2D
:10474000054629462720FFF7C4FE05F0400050B17A
:10475000202221466120FFF71AFFFF21E220FFF708
:10476000B8FE002070BD0120FCE72DE9F0410546B0
:104770000C46164600202349086005F0070141F069
:10478000A80000F057F88046002705E014F8010B58
:1047900000F050F8781CC7B2B742F7DB0120194986
:1047A00008604046BDE8F08110B500201549091F9A
:1047B000086005221E493020FFF79EFE052213499E
:1047C0002A20FFF799FE01212120FFF782FE012117
:1047D0002220FFF77EFE1A212420FFF77AFE002117
:1047E0002520FFF776FE0F212620FFF772FE0E210F
:1047F0002020FFF76EFE01200349C1F88C0210BD96
:10480000003001409002404200004042D97E000842
:10481000A5A5A5A5A5000000000002406572726F65
:10482000720000004E524632344C3031204F4B0063
:10483000D47E000810B5044600BF02214148FDF7B0
:104840006FF80028F9D021463E48FDF720F800BF58
:1048500001213C48FDF764F80028F9D03948FDF7FC
:1048600013F8C0B210BD00B587B001210846FCF7AF
:10487000F3FC01210803FCF749FDE020059002202C
:104880008DF8180000208DF81A0003208DF819000B
:1048900001208DF81B0005A92B48FCF73FFA0522E3
:1048A00011462948FCF7C5FA052206212648FCF7DF
:1048B000C0FA052207212448FCF7BBFA01210803AE
:1048C000FCF779FD00214FF48050FCF774FD0020C7
:1048D000ADF800004FF48270ADF802000020ADF892
:1048E00004000220ADF806000120ADF808004002E7
:1048F000ADF80A003820ADF80C000020ADF80E002D
:104900000720ADF8100069460E48FCF745FE01216E
:104910000C48FCF73BFFFF20FFF78CFF07B000BD02
:1049200010B50446074800884FF6C771084005498E
:104930000880084600882043088001210148FCF7D0
:1049400025FF10BD00300140000002407FB5054644
:104950000C4601211020FCF7C8FC0295ADF804407C
:104960000020ADF80600ADF80C0001A93448FDF7B1
:10497000FEF8012211463248FDF79AFD0121304828
:10498000FDF77EF936208DF8000001208DF801003A
:104990008DF802008DF803006846FBF714FE7FBD1A
:1049A00010B501212648FDF79AFD01212448FDF7A5
:1049B000A7FD10BD7FB505460C4601212020FCF760
:1049C00094FC0295ADF804400020ADF80600ADF867
:1049D0000C0001A91B48FDF7CAF80122114619482D
:1049E000FDF766FD01211748FDF74AF937208DF8DC
:1049F000000001208DF801008DF802008DF8030001
:104A00006846FBF7E0FD7FBD10B501210D48FDF7BD
:104A100066FD01280ED19FED0C0A00F038FA032143
:104A2000084600F0DDF80B21084800F0F0F80020FF
:104A30000649487201210348FDF762FD10BD0000E0
:104A400000100040001400400AD7233C010500205C
:104A50000EB5FEF7F9F801218803FCF757FC082191
:104A60000420FCF79EFF0C210420FCF79AFF0D2187
:104A70000420FCF796FF0E210420FCF792FF0F2183
:104A80000420FCF78EFF4FF47140009000208DF859
:104A900004000C208DF8050001208DF80600684602
:104AA000FCF73CF83F208DF8080000208DF8090045
:104AB00002208DF80A0001208DF80B0002A8FBF7F8
:104AC00082FD0EBD10B54FF48070FCF78DF848B133
:104AD0001848006810B90120174908704FF4807019
:104AE000FCF78DF810BD10B54FF48050FCF77CF842
:104AF00058B11048001D006810B902200E49087016
:104B00004FF48050FCF77BF80FE04FF40050FCF7B7
:104B10006BF850B107480830006810B90320064907
:104B200008704FF40050FCF76AF84FF40040FCF7AF
:104B300066F810BD000242424400002010B588B063
:104B4000044601210820FCF787FB01218804FCF7BB
:104B5000CCFB072208216148FCF76BF907220921E9
:104B60005E48FCF766F94FF44070069002208DF81D
:104B70001C008DF81D0000208DF81E0001208DF80E
:104B80001F0006A95548FCF7C9F802940020ADF8AB
:104B90000C00ADF80E00ADF81000ADF814000C20BC
:104BA000ADF8120002A94E48FDF7EDFD01214C4879
:104BB000FDF771FE012240F225514948FDF721FF22
:104BC00027208DF8040003208DF805008DF80600DD
:104BD00001208DF8070001A8FBF7F5FC08B010BD17
:104BE00030B502463F4C002355202546287020460C
:104BF000C0F80120C0F80510002003E0255C1D442A
:104C0000EBB2401C0A28F9DB3648837230BD70B520
:104C100005460E4600240CE000BF80213048FDF719
:104C200015FF0028F9D0295D2D48FDF75FFE601CB7
:104C3000C4B2B442F0DB00BF40212948FDF706FFB3
:104C40000028F9D070BD10B540F225512448FDF779
:104C500013FF002840D02248FDF74CFE224908707F
:104C600022480078002837D12148007860B90846EA
:104C70000078552830D10A781D490878411C1C4B12
:104C800019701C490A5427E017490A78184908780E
:104C9000411C174B197017490A541846007805280B
:104CA0001ADB084600784978084412498978084494
:104CB0001049C9780844104908700E4800790978ED
:104CC000884203D101200949087002E001200B4904
:104CD000087000200649087010BD0000000C02405A
:104CE0000048004001050020530000205000002033
:104CF0004F0000204A0000205400002051000020F6
:104D000030B589B004460D4601210220FCF7EDFACA
:104D100001210220FCF7A0FA022204218B48FCF7B3
:104D200088F8022205218948FCF783F83020019099
:104D300002208DF8080000208DF80A0001208DF86F
:104D40000B0001A98148FBF7E9FFADF81850079463
:104D50000020ADF81A00ADF8200006A97C48FCF749
:104D600006FF00231A4603217948FDF774FC03A8C7
:104D7000FDF70BFB0620ADF8140003A97448FDF7FE
:104D8000CDFA01217248FDF7A7FB012211467048B8
:104D9000FDF78EFB00216E48FCF732FF01216C48C5
:104DA000FCF76EFF09B030BD30B589B004460D4642
:104DB00001210420FCF799FA01210820FCF74CFAA4
:104DC00002220C216348FCF734F802220D216148CD
:104DD000FCF72FF84FF44050019002208DF80800A6
:104DE00000208DF80A0001208DF80B0001A9594818
:104DF000FBF794FFADF8185007940020ADF81A00A7
:104E0000ADF8200006A95448FCF7B1FE00231A466D
:104E100003215148FDF71FFC03A8FDF7B6FA062051
:104E2000ADF8140003A94C48FDF778FA01214A486F
:104E3000FDF752FB012211464748FDF739FB0021DF
:104E40004548FCF7DDFE01214348FCF719FF09B096
:104E500030BD3F482430006800B200EE100AB8EEC2
:104E6000C00A3E4880ED000A3B482430006800B28A
:104E700000EE100AB8EEC00A384880ED010A0020A2
:104E8000334924310860344924310860704700B543
:104E9000F0EE400AFFF7DDFF304890ED000A9FED8D
:104EA000301AC0EE011A9FED2F0A21EE800A9FED05
:104EB0002E1A20EE010A80ED040A90ED010A9FED02
:104EC000281AC0EE011A9FED270A21EE800A9FEDF5
:104ED000261A20EE010A80ED050A90ED040AB1EED3
:104EE000400A80EE201A80ED021A90ED050AB1EE1C
:104EF000400A80EE201A80ED031A00BD00B5FFF7CE
:104F0000A8FF1648D0ED000A184890ED000AB8EE48
:104F1000C00A30EE800ABDEEC00A80ED000A0F48DC
:104F2000D0ED010A124890ED000AB8EEC00A30EE4A
:104F3000800ABDEEC00A80ED000A0C4800680D49E9
:104F400048600B480068C86000BD000000040240D3
:104F500000040040000C0240000800401C05002036
:104F600000001945C3F54840EC51383E5800002078
:104F70005C0000200C0500201CB501210220FCF77C
:104F80006BF94FF44070009000208DF8040003206E
:104F90008DF8050001208DF8070069460848FBF7E9
:104FA000BDFE1CBD10B54FF480710548FBF718FF1E
:104FB00010BD10B54FF400710148FBF711FF10BD93
:104FC0000004024010B586B0044601210420FCF71D
:104FD00043F90121C804FCF788F908220A2148484E
:104FE000FBF727FF08220B214548FBF722FF4FF470
:104FF0004060049002208DF814008DF81500002008
:105000008DF8160001208DF8170004A93C48FBF725
:1050100085FE00940020ADF80400ADF80600ADF860
:105020000800ADF80C000C20ADF80A0069463548C0
:10503000FDF7A9FB01213348FDF72DFC06B010BD9B
:1050400070B505460C460BE000BF40212846FDF731
:10505000FDFC0028F9D014F8011B2846FDF746FC9A
:1050600020780028F0D100BF40212846FDF7EEFC53
:105070000028F9D070BD10B504460BE000BF4021F8
:105080002048FDF7E3FC0028F9D014F8011B1D4867
:10509000FDF72CFC20780028F0D110BD10B5044697
:1050A00000BF40211748FDF7D1FC0028F9D0214668
:1050B0001448FDF71BFC10BD10B5044603E014F8BE
:1050C000010BFFF7EBFF20780028F8D110BD10B5D9
:1050D00086B0044622460CA101A800F021FB01A8DD
:1050E000FFF7C9FF06B010BD3EB50446224607A132
:1050F000684600F015FB6846FFF7BDFF3EBD0000A7
:1051000000080240004C0040256420002530325841
:10511000200000002DE9FE4F81EA030404F0004462
:1051200021F0004100944FF0000B23F0004350EABF
:1051300001045ED052EA03045BD0C3F30A54C1F306
:105140000A552C44A4F2F3340194A0FB0254C1F399
:10515000130141F48011C3F3130343F4801301FBE3
:10516000024400FB034E840A970A44EA815447EA4A
:105170008357A4FB076802958D0A05FB07854FEA54
:10518000932C04FB0C542705029D4FEA065847EA6E
:105190001637B5EB08056EEB070C870E920E47EA43
:1051A000811742EA8312A7FB0201B6EB0B0164EB05
:1051B00000042B0D43EA0C335E1844EB1C50DA4616
:1051C0005146E7FB0201C5F313044FEA0B3343EAF0
:1051D00014534FEA0432019C43EA0603A4F10C0481
:1051E0000294009CCDE900B400F0C2F803B0BDE821
:1051F000F08F00200146F9E700F0004230F0004057
:105200000AD0C10D01F56071C0F3160042EA0151E8
:10521000C20840071143704700200146704701F063
:10522000004330B421F0004150EA010206D00A0DDB
:10523000A2F56072C1F31301002A02DC30BC002029
:105240007047440F44EAC104C100E01830BC00EBD1
:10525000C25000F047B830B50B460146002020226E
:10526000012409E021FA02F59D4205D303FA02F573
:10527000491B04FA02F52844151EA2F10102F1DCD3
:1052800030BD2DE9F05F0546002092469B468846DA
:105290000646814640241BE02846414647462246B2
:1052A00000F01BFA53465A46C01A914110D31146DA
:1052B0001846224600F002FA2D1A67EB01084F4605
:1052C00022460120002100F0F9F917EB00094E41B8
:1052D000201EA4F10104DFDC484631462A4643463D
:1052E000BDE8F09F0029A8BF7047401C490008BFD7
:1052F00020F00100704710B4B0FA80FC00FA0CF006
:1053000050EA010404BF10BC704749B1CCF120043D
:1053100021FA04F411FA0CF118BF012121430843CA
:10532000A3EB0C01CB1D4FEA00614FEA102042BFF6
:10533000002010BC704700EBC35010440029A4BFEC
:1053400010BC7047401C490008BF20F0010010BC91
:10535000704710B5141E73F1000408DA401C41F1C7
:10536000000192185B411A4301D120F0010010BDE9
:105370002DE9F04D92469B4611B1B1FA81F202E05F
:10538000B0FA80F22032904600F098F904460F46B9
:1053900040EA0A0041EA0B0153465A46084313D03B
:1053A000114653EA010019D0C8F14002504600F0FE
:1053B00094F905460E4650465946424600F07EF99D
:1053C000084305D0012004E020463946BDE8F08DB1
:1053D0000020054346EAE0762C4337430A986305EC
:1053E000E40AA0EB08000022FD0A44EA47540A3010
:1053F00002D500200146E9E7010510196941DDE900
:10540000084500196941BDE8F04DA2E72DE9FE4FBE
:10541000804681EA0300C00F0C46009021F0004155
:1054200023F00045B8EB0200A94105D240462146D1
:1054300090461C460B46024623F00040104347D0DE
:10544000270DC7F30A00C3F30A510290401A0190D6
:1054500040286BDAC3F3130040F4801B0098924697
:1054600020B10023D2EB030A63EB0B0B01985946E2
:10547000C0F14002504600F021F906460D46504664
:105480005946019A00F039F910EB080061410024F7
:1054900087EA115284EAE7731A4340D0009A62B354
:1054A000019A012A4FEA075215DC001B61EB020149
:1054B0004FF0004202EA0752CDE90042001C41F5DC
:1054C000801132462B46FFF753FF03B0BDE8F08F43
:1054D00040462146F9E7001B61EB0201001C41F543
:1054E000801300185B412018A2F5001747EB030159
:1054F00040EAD570B6196D4111E06D084FEA3606E5
:1055000045EAC0754FEA0752001B61EB0201001C1F
:1055100041F5801149084FEA3000001951413246E7
:105520002B4603B0BDE8F04FFFF713BF00980122F0
:1055300040000023D0EB020263EBE07300982146A9
:105540004FEAE074B8EB000061EB0401E9E783F097
:1055500000435BE781F0004158E72DE9F04D81EA17
:10556000030404F0004B21F0004514464FF0000AFC
:1055700023F0004150EA050220D054EA01021DD078
:10558000C5F30A570246C5F31303C1F31300C1F371
:105590000A5640F4801543F48013A7EB0608101B4D
:1055A000D64608F2FD3873EB050002D308F1010876
:1055B00001E092185B41B8F1000F03DA00200146C8
:1055C000BDE8F08D00204FF48011064684460EE0C1
:1055D000171B73EB050705D3121B63EB050306438B
:1055E0004CEA010C49084FEA300092185B4150EA3E
:1055F0000107EDD152EA030012D082EA040083EAE7
:105600000501084305D0101BAB4106D2012200233F
:1056100006E000224FF0004302E06FF00102531059
:105620001AEB06004CEB085110EB0A0041EB0B01A2
:10563000BDE8F04DFFF78DBEC1F30A52C1F313016F
:1056400040F2FF3341F480119A4202DA0020014611
:10565000704740F233439A42A2F2334202DC524294
:1056600000F03BB800F02AB830B5041E71F1000418
:1056700004DB4FF00044404264EB0101141E73F15F
:10568000000405DB1C464FF00043524263EB040369
:10569000994208BF904230BD064C074D06E0E068D5
:1056A00040F0010394E8070098471034AC42F6D369
:1056B000FAF76EFDE07E0008007F0008202A04DB78
:1056C000203A00FA02F1002070479140C2F1200315
:1056D00020FA03F3194390407047202A04DB203A54
:1056E00021FA02F00021704721FA02F3D040C2F102
:1056F00020029140084319467047202A06DBCB1749
:10570000203A41FA02F043EAE07306E041FA02F37C
:10571000D040C2F120029140084319467047000072
:105720000FB4084B10B504A902AA039800F0DEF8E4
:10573000044602A9002000F070FC204610BC5DF871
:1057400014FB00001B60000802E008C8121F08C11B
:10575000002AFAD170477047002001E001C1121FF2
:10576000002AFBD1704700002DE9FF5F82B00021C5
:10577000DDE90430020DDDF840B0034318D044F6F3
:105780001050A2F2FF3242431514119801281FD085
:10579000A5EB0B00401C5FEA000A4FF000064E4FDD
:1057A000DFF83891B046504615D5CAF1000413E031
:1057B000119801244AA3012801D16FEA0B01029834
:1057C000119AC0E90031C0E9024206B0BDE8F09F7D
:1057D000CBF10000DFE704460021404A491842EBC4
:1057E0000450CDE9001012E0E00707D032463B46F6
:1057F00040464946FFF78EFC8046894632463B4686
:1058000010461946FFF786FC06460F466410002C2A
:10581000EAD1DDE90401DDE90023BAF1000F06DA7F
:10582000FFF778FC42464B46FFF774FC05E0FFF7B4
:1058300094FE42464B46FFF790FE04460E46002279
:10584000284BFFF711FF03D84FF0FF30014607E068
:105850000022254B20463146FFF7D8FDFFF7ECFE2E
:10586000102409E0002C0ADB0A220023FFF709FDBF
:10587000039B30321A55641E50EA0102F2D1641CB7
:10588000039AC4F111031444119A012A03D001228E
:1058900008430DD10AE0084304D000204FF0110B5B
:1058A000119072E7A3EB0B056D1E0DE05B4504DD67
:1058B0004FF0000205F1010504E003DA4FF00002A9
:1058C000A5F10105002AECD002981199C0E9023136
:1058D000C0E9004579E70000000014400000F03FF7
:1058E000300000000000F0430000E03F2DE9FF4FD2
:1058F00095B09B468946064600250FE2252877D1BC
:1059000000242746F84A0121059400E0044316F8D4
:10591000013F203B01FA03F01042F7D130782A28EA
:1059200011D06FF02F033078A0F13002092A16D879
:10593000059A44F0020402EB820203EB4202104497
:10594000761C0590EFE759F8042B0592002A03DA3C
:10595000504244F40054059044F00204761C307820
:105960002E2816D116F8010F44F004042A280DD071
:105970006FF02F023078A0F13003092B09D807EB24
:10598000870302EB4303C718761CF3E759F8047B3F
:10599000761C30786C280FD006DC4C2817D068288D
:1059A0000DD06A2814D104E0742810D07A280FD1C1
:1059B0000DE044F400140AE044F4801401E044F4DF
:1059C00040147278824202D104F58014761C761C51
:1059D000307866280BD013DC582877D009DC0028F3
:1059E00075D04528F6D04628F4D047281AD19DE135
:1059F00018E0632835D0642879D0652812D195E164
:105A0000702873D008DC6728F1D069286FD06E2821
:105A10000DD06F2806D1B5E073282CD0752875D02D
:105A2000782874D05A46179990476D1C75E1C4F3D5
:105A30000250022809D003280DD0D9F800100428FC
:105A40000DD00D6009F1040967E1D9F80010EA17DB
:105A5000C1E90052F6E7D9F800100D80F2E70D70A9
:105A6000F0E719F8041B8DF8001000208DF80100F4
:105A7000EA46012003E059F804AB4FF0FF3061071C
:105A80004FF0000102D40DE008F101018846B9424F
:105A90000FDA8045F8DB1AF808100029F4D108E085
:105AA00008F1010188468142FADB1AF80810002942
:105AB000F6D105985B46A0EB080721463846179AB1
:105AC00000F094FA284400EB080507E04DE029E1D6
:105AD0000DE01AF8010B5A4617999047B8F10108E2
